{
  "address": "0x76a3B8FeA6F6C7D7af5B47885563955F3ACd9BC2",
  "abi": [
    {
      "inputs": [],
      "stateMutability": "nonpayable",
      "type": "constructor"
    },
    {
      "inputs": [
        {
          "internalType": "address",
          "name": "owner",
          "type": "address"
        }
      ],
      "name": "OwnableInvalidOwner",
      "type": "error"
    },
    {
      "inputs": [
        {
          "internalType": "address",
          "name": "account",
          "type": "address"
        }
      ],
      "name": "OwnableUnauthorizedAccount",
      "type": "error"
    },
    {
      "anonymous": false,
      "inputs": [
        {
          "indexed": false,
          "internalType": "uint256",
          "name": "amount",
          "type": "uint256"
        }
      ],
      "name": "Distributed",
      "type": "event"
    },
    {
      "anonymous": false,
      "inputs": [
        {
          "indexed": false,
          "internalType": "uint256",
          "name": "amount",
          "type": "uint256"
        }
      ],
      "name": "ETHWithdrawn",
      "type": "event"
    },
    {
      "anonymous": false,
      "inputs": [
        {
          "indexed": true,
          "internalType": "address",
          "name": "previousOwner",
          "type": "address"
        },
        {
          "indexed": true,
          "internalType": "address",
          "name": "newOwner",
          "type": "address"
        }
      ],
      "name": "OwnershipTransferred",
      "type": "event"
    },
    {
      "anonymous": false,
      "inputs": [
        {
          "indexed": false,
          "internalType": "address[3]",
          "name": "recipients",
          "type": "address[3]"
        },
        {
          "indexed": false,
          "internalType": "uint256[3]",
          "name": "percentages",
          "type": "uint256[3]"
        }
      ],
      "name": "RecipientsUpdated",
      "type": "event"
    },
    {
      "anonymous": false,
      "inputs": [
        {
          "indexed": false,
          "internalType": "address",
          "name": "token",
          "type": "address"
        }
      ],
      "name": "TokenUpdated",
      "type": "event"
    },
    {
      "anonymous": false,
      "inputs": [
        {
          "indexed": false,
          "internalType": "address",
          "name": "token",
          "type": "address"
        },
        {
          "indexed": false,
          "internalType": "uint256",
          "name": "amount",
          "type": "uint256"
        }
      ],
      "name": "TokensWithdrawn",
      "type": "event"
    },
    {
      "inputs": [],
      "name": "distribute",
      "outputs": [],
      "stateMutability": "nonpayable",
      "type": "function"
    },
    {
      "inputs": [],
      "name": "owner",
      "outputs": [
        {
          "internalType": "address",
          "name": "",
          "type": "address"
        }
      ],
      "stateMutability": "view",
      "type": "function"
    },
    {
      "inputs": [
        {
          "internalType": "uint256",
          "name": "",
          "type": "uint256"
        }
      ],
      "name": "percentages",
      "outputs": [
        {
          "internalType": "uint256",
          "name": "",
          "type": "uint256"
        }
      ],
      "stateMutability": "view",
      "type": "function"
    },
    {
      "inputs": [
        {
          "internalType": "uint256",
          "name": "",
          "type": "uint256"
        }
      ],
      "name": "recipients",
      "outputs": [
        {
          "internalType": "address",
          "name": "",
          "type": "address"
        }
      ],
      "stateMutability": "view",
      "type": "function"
    },
    {
      "inputs": [],
      "name": "renounceOwnership",
      "outputs": [],
      "stateMutability": "nonpayable",
      "type": "function"
    },
    {
      "inputs": [
        {
          "internalType": "address[3]",
          "name": "_recipients",
          "type": "address[3]"
        },
        {
          "internalType": "uint256[3]",
          "name": "_percentages",
          "type": "uint256[3]"
        }
      ],
      "name": "setRecipients",
      "outputs": [],
      "stateMutability": "nonpayable",
      "type": "function"
    },
    {
      "inputs": [
        {
          "internalType": "address",
          "name": "_token",
          "type": "address"
        }
      ],
      "name": "setToken",
      "outputs": [],
      "stateMutability": "nonpayable",
      "type": "function"
    },
    {
      "inputs": [],
      "name": "token",
      "outputs": [
        {
          "internalType": "contract IERC20",
          "name": "",
          "type": "address"
        }
      ],
      "stateMutability": "view",
      "type": "function"
    },
    {
      "inputs": [
        {
          "internalType": "address",
          "name": "newOwner",
          "type": "address"
        }
      ],
      "name": "transferOwnership",
      "outputs": [],
      "stateMutability": "nonpayable",
      "type": "function"
    },
    {
      "inputs": [],
      "name": "withdrawETH",
      "outputs": [],
      "stateMutability": "nonpayable",
      "type": "function"
    },
    {
      "inputs": [
        {
          "internalType": "address",
          "name": "_token",
          "type": "address"
        }
      ],
      "name": "withdrawTokens",
      "outputs": [],
      "stateMutability": "nonpayable",
      "type": "function"
    }
  ],
  "transactionHash": "0xd85ec16b5434872d240c82a0e5ec427e84f59321164b99b898c78f8e746ed486",
  "args": [],
  "numDeployments": 1,
  "solcInputHash": "cd2101b330754f14fa5c0f4f8a455814",
  "bytecode": "0x608060405234801561001057600080fd5b50338061003757604051631e4fbdf760e01b81526000600482015260240160405180910390fd5b61004081610046565b50610096565b600080546001600160a01b038381166001600160a01b0319831681178455604051919092169283917f8be0079c531659141344cd1fd0a4f28419497f9722a3daafe3b4186f6b6457e09190a35050565b610c9e806100a56000396000f3fe608060405234801561001057600080fd5b50600436106100a95760003560e01c8063d1bc76a111610071578063d1bc76a11461011b578063e086e5ec1461012e578063e4fc6b6d14610136578063f2fde38b1461013e578063f885838614610151578063fc0c546a1461017257600080fd5b80630b80c1c0146100ae578063144fa6d7146100c357806349df728c146100d6578063715018a6146100e95780638da5cb5b146100f1575b600080fd5b6100c16100bc366004610a58565b610185565b005b6100c16100d1366004610b0f565b6102b8565b6100c16100e4366004610b0f565b610363565b6100c1610552565b6000546001600160a01b03165b6040516001600160a01b0390911681526020015b60405180910390f35b6100fe610129366004610b31565b610566565b6100c1610586565b6100c161063b565b6100c161014c366004610b0f565b610898565b61016461015f366004610b31565b6108d6565b604051908152602001610112565b6007546100fe906001600160a01b031681565b61018d6108ed565b81516001600160a01b03166101e95760405162461bcd60e51b815260206004820152601f60248201527f4174206c65617374206f6e6520726563697069656e742072657175697265640060448201526064015b60405180910390fd5b6040810151602082015182516000929161020291610b76565b61020c9190610b76565b90508060641461025e5760405162461bcd60e51b815260206004820152601b60248201527f50657263656e7461676573206d7573742073756d20746f20313030000000000060448201526064016101e0565b61026b600184600361096a565b5061027960048360036109c2565b507fc417118706db9f9287a0be2231f79cfab22831060c01eb968332b8f8f85e9ebb83836040516102ab929190610b8f565b60405180910390a1505050565b6102c06108ed565b6001600160a01b03811661030e5760405162461bcd60e51b8152602060048201526015602482015274496e76616c696420746f6b656e206164647265737360581b60448201526064016101e0565b600780546001600160a01b0319166001600160a01b0383169081179091556040519081527f5ba6b30cd4b2f9e9e67f4feb9b9df10d5da3b057598e6901b217b7d590345e30906020015b60405180910390a150565b61036b6108ed565b6007546001600160a01b03908116908216036103c95760405162461bcd60e51b815260206004820152601d60248201527f43616e6e6f74207769746864726177207072696d61727920746f6b656e00000060448201526064016101e0565b6040516370a0823160e01b815230600482015281906000906001600160a01b038316906370a0823190602401602060405180830381865afa158015610412573d6000803e3d6000fd5b505050506040513d601f19601f820116820180604052508101906104369190610bf4565b9050600081116104805760405162461bcd60e51b81526020600482015260156024820152744e6f20746f6b656e7320746f20776974686472617760581b60448201526064016101e0565b816001600160a01b031663a9059cbb6104a16000546001600160a01b031690565b6040516001600160e01b031960e084901b1681526001600160a01b039091166004820152602481018490526044016020604051808303816000875af11580156104ee573d6000803e3d6000fd5b505050506040513d601f19601f820116820180604052508101906105129190610c0d565b50604080516001600160a01b0385168152602081018390527f6352c5382c4a4578e712449ca65e83cdb392d045dfcf1cad9615189db2da244b91016102ab565b61055a6108ed565b610564600061091a565b565b6001816003811061057657600080fd5b01546001600160a01b0316905081565b61058e6108ed565b47806105d15760405162461bcd60e51b81526020600482015260126024820152714e6f2045544820746f20776974686472617760701b60448201526064016101e0565b600080546040516001600160a01b039091169183156108fc02918491818181858888f1935050505015801561060a573d6000803e3d6000fd5b506040518181527f043f607a14d3b4f0a11a0b2e192bbfcd894298ba5abf22553be6081406db28aa90602001610358565b6007546001600160a01b03166106835760405162461bcd60e51b815260206004820152600d60248201526c151bdad95b881b9bdd081cd95d609a1b60448201526064016101e0565b6007546040516370a0823160e01b81523060048201526000916001600160a01b0316906370a0823190602401602060405180830381865afa1580156106cc573d6000803e3d6000fd5b505050506040513d601f19601f820116820180604052508101906106f09190610bf4565b9050600081116107425760405162461bcd60e51b815260206004820152601760248201527f4e6f20746f6b656e7320746f206469737472696275746500000000000000000060448201526064016101e0565b60005b60038110156108675760006001826003811061076357610763610b4a565b01546001600160a01b031614801590610790575060006004826003811061078c5761078c610b4a565b0154115b1561085f5760006064600483600381106107ac576107ac610b4a565b01546107b89085610c2f565b6107c29190610c46565b6007549091506001600160a01b031663a9059cbb600184600381106107e9576107e9610b4a565b015460405160e083901b6001600160e01b03191681526001600160a01b039091166004820152602481018490526044016020604051808303816000875af1158015610838573d6000803e3d6000fd5b505050506040513d601f19601f8201168201806040525081019061085c9190610c0d565b50505b600101610745565b506040518181527fddc9c30275a04c48091f24199f9c405765de34d979d6847f5b9798a57232d2e590602001610358565b6108a06108ed565b6001600160a01b0381166108ca57604051631e4fbdf760e01b8152600060048201526024016101e0565b6108d38161091a565b50565b600481600381106108e657600080fd5b0154905081565b6000546001600160a01b031633146105645760405163118cdaa760e01b81523360048201526024016101e0565b600080546001600160a01b038381166001600160a01b0319831681178455604051919092169283917f8be0079c531659141344cd1fd0a4f28419497f9722a3daafe3b4186f6b6457e09190a35050565b82600381019282156109b2579160200282015b828111156109b257825182546001600160a01b0319166001600160a01b0390911617825560209092019160019091019061097d565b506109be9291506109f0565b5090565b82600381019282156109b2579160200282015b828111156109b25782518255916020019190600101906109d5565b5b808211156109be57600081556001016109f1565b6040516060810167ffffffffffffffff81118282101715610a3657634e487b7160e01b600052604160045260246000fd5b60405290565b80356001600160a01b0381168114610a5357600080fd5b919050565b60008060c08385031215610a6b57600080fd5b83601f840112610a7a57600080fd5b610a82610a05565b806060850186811115610a9457600080fd5b855b81811015610ab557610aa781610a3c565b845260209384019301610a96565b5081945086607f870112610ac857600080fd5b610ad0610a05565b925082915060c0860187811115610ae657600080fd5b5b80821015610b02578135845260209384019390910190610ae7565b5093969095509350505050565b600060208284031215610b2157600080fd5b610b2a82610a3c565b9392505050565b600060208284031215610b4357600080fd5b5035919050565b634e487b7160e01b600052603260045260246000fd5b634e487b7160e01b600052601160045260246000fd5b80820180821115610b8957610b89610b60565b92915050565b60c08101818460005b6003811015610bc05781516001600160a01b0316835260209283019290910190600101610b98565b505050606082018360005b6003811015610bea578151835260209283019290910190600101610bcb565b5050509392505050565b600060208284031215610c0657600080fd5b5051919050565b600060208284031215610c1f57600080fd5b81518015158114610b2a57600080fd5b8082028115828204841417610b8957610b89610b60565b600082610c6357634e487b7160e01b600052601260045260246000fd5b50049056fea26469706673582212203ddc5eaf47a78b1564250446f076d3b874e15894d1dce5a83c99096bcc66748664736f6c63430008160033",
  "devdoc": {
    "errors": {
      "OwnableInvalidOwner(address)": [
        {
          "details": "The owner is not a valid owner account. (eg. `address(0)`)"
        }
      ],
      "OwnableUnauthorizedAccount(address)": [
        {
          "details": "The caller account is not authorized to perform an operation."
        }
      ]
    },
    "kind": "dev",
    "methods": {
      "owner()": {
        "details": "Returns the address of the current owner."
      },
      "renounceOwnership()": {
        "details": "Leaves the contract without owner. It will not be possible to call `onlyOwner` functions. Can only be called by the current owner. NOTE: Renouncing ownership will leave the contract without an owner, thereby disabling any functionality that is only available to the owner."
      },
      "transferOwnership(address)": {
        "details": "Transfers ownership of the contract to a new account (`newOwner`). Can only be called by the current owner."
      }
    },
    "version": 1
  },
  "userdoc": {
    "kind": "user",
    "methods": {},
    "version": 1
  },
  "storageLayout": {
    "storage": [
      {
        "astId": 3841,
        "contract": "contracts/ERC20Splitter3Way.sol:ERC20Splitter3Way",
        "label": "_owner",
        "offset": 0,
        "slot": "0",
        "type": "t_address"
      },
      {
        "astId": 5669,
        "contract": "contracts/ERC20Splitter3Way.sol:ERC20Splitter3Way",
        "label": "recipients",
        "offset": 0,
        "slot": "1",
        "type": "t_array(t_address)3_storage"
      },
      {
        "astId": 5673,
        "contract": "contracts/ERC20Splitter3Way.sol:ERC20Splitter3Way",
        "label": "percentages",
        "offset": 0,
        "slot": "4",
        "type": "t_array(t_uint256)3_storage"
      },
      {
        "astId": 5676,
        "contract": "contracts/ERC20Splitter3Way.sol:ERC20Splitter3Way",
        "label": "token",
        "offset": 0,
        "slot": "7",
        "type": "t_contract(IERC20)4800"
      }
    ],
    "types": {
      "t_address": {
        "encoding": "inplace",
        "label": "address",
        "numberOfBytes": "20"
      },
      "t_array(t_address)3_storage": {
        "base": "t_address",
        "encoding": "inplace",
        "label": "address[3]",
        "numberOfBytes": "96"
      },
      "t_array(t_uint256)3_storage": {
        "base": "t_uint256",
        "encoding": "inplace",
        "label": "uint256[3]",
        "numberOfBytes": "96"
      },
      "t_contract(IERC20)4800": {
        "encoding": "inplace",
        "label": "contract IERC20",
        "numberOfBytes": "20"
      },
      "t_uint256": {
        "encoding": "inplace",
        "label": "uint256",
        "numberOfBytes": "32"
      }
    }
  }
}