{
  "address": "0x6d3261C6e1cb05E0FD0132b6d962CA8fAbB109AC",
  "abi": [
    {
      "inputs": [
        {
          "internalType": "address",
          "name": "titnContract",
          "type": "address"
        },
        {
          "internalType": "uint64",
          "name": "startTimestamp",
          "type": "uint64"
        },
        {
          "internalType": "uint64",
          "name": "vestingDuration",
          "type": "uint64"
        }
      ],
      "stateMutability": "nonpayable",
      "type": "constructor"
    },
    {
      "anonymous": false,
      "inputs": [
        {
          "indexed": true,
          "internalType": "address",
          "name": "account",
          "type": "address"
        },
        {
          "indexed": false,
          "internalType": "uint96",
          "name": "amount",
          "type": "uint96"
        }
      ],
      "name": "Claim",
      "type": "event"
    },
    {
      "anonymous": false,
      "inputs": [
        {
          "indexed": false,
          "internalType": "uint64",
          "name": "startTimestamp",
          "type": "uint64"
        }
      ],
      "name": "SetStartTimestamp",
      "type": "event"
    },
    {
      "anonymous": false,
      "inputs": [
        {
          "indexed": true,
          "internalType": "address",
          "name": "owner",
          "type": "address"
        }
      ],
      "name": "TransferOwner",
      "type": "event"
    },
    {
      "anonymous": false,
      "inputs": [
        {
          "indexed": true,
          "internalType": "address",
          "name": "account",
          "type": "address"
        },
        {
          "indexed": false,
          "internalType": "uint96",
          "name": "amount",
          "type": "uint96"
        },
        {
          "indexed": false,
          "internalType": "uint64",
          "name": "vestingDuration",
          "type": "uint64"
        }
      ],
      "name": "Vested",
      "type": "event"
    },
    {
      "inputs": [],
      "name": "_startTimestamp",
      "outputs": [
        {
          "internalType": "uint64",
          "name": "",
          "type": "uint64"
        }
      ],
      "stateMutability": "view",
      "type": "function"
    },
    {
      "inputs": [],
      "name": "_vestingDuration",
      "outputs": [
        {
          "internalType": "uint64",
          "name": "",
          "type": "uint64"
        }
      ],
      "stateMutability": "view",
      "type": "function"
    },
    {
      "inputs": [
        {
          "internalType": "address",
          "name": "vested",
          "type": "address"
        }
      ],
      "name": "canClaim",
      "outputs": [
        {
          "internalType": "uint256",
          "name": "",
          "type": "uint256"
        }
      ],
      "stateMutability": "view",
      "type": "function"
    },
    {
      "inputs": [
        {
          "internalType": "address",
          "name": "account",
          "type": "address"
        }
      ],
      "name": "cancel",
      "outputs": [],
      "stateMutability": "nonpayable",
      "type": "function"
    },
    {
      "inputs": [
        {
          "internalType": "address",
          "name": "to",
          "type": "address"
        },
        {
          "internalType": "uint96",
          "name": "amount",
          "type": "uint96"
        }
      ],
      "name": "claim",
      "outputs": [],
      "stateMutability": "nonpayable",
      "type": "function"
    },
    {
      "inputs": [],
      "name": "recoverTokens",
      "outputs": [],
      "stateMutability": "nonpayable",
      "type": "function"
    },
    {
      "inputs": [
        {
          "internalType": "uint64",
          "name": "startTimestamp",
          "type": "uint64"
        }
      ],
      "name": "setStartTimestamp",
      "outputs": [],
      "stateMutability": "nonpayable",
      "type": "function"
    },
    {
      "inputs": [
        {
          "internalType": "address",
          "name": "newOwner",
          "type": "address"
        }
      ],
      "name": "transferOwner",
      "outputs": [],
      "stateMutability": "nonpayable",
      "type": "function"
    },
    {
      "inputs": [
        {
          "internalType": "address[]",
          "name": "accounts",
          "type": "address[]"
        },
        {
          "internalType": "uint96[]",
          "name": "amounts",
          "type": "uint96[]"
        }
      ],
      "name": "vest",
      "outputs": [],
      "stateMutability": "nonpayable",
      "type": "function"
    },
    {
      "inputs": [],
      "name": "vestedBalance",
      "outputs": [
        {
          "internalType": "uint256",
          "name": "",
          "type": "uint256"
        }
      ],
      "stateMutability": "view",
      "type": "function"
    },
    {
      "inputs": [
        {
          "internalType": "address",
          "name": "vested",
          "type": "address"
        }
      ],
      "name": "vestedBalanceOf",
      "outputs": [
        {
          "internalType": "uint256",
          "name": "",
          "type": "uint256"
        }
      ],
      "stateMutability": "view",
      "type": "function"
    },
    {
      "inputs": [
        {
          "internalType": "address",
          "name": "account",
          "type": "address"
        }
      ],
      "name": "vestingDetails",
      "outputs": [
        {
          "internalType": "uint96",
          "name": "totalAmount",
          "type": "uint96"
        },
        {
          "internalType": "uint96",
          "name": "claimed",
          "type": "uint96"
        },
        {
          "internalType": "uint256",
          "name": "claimable",
          "type": "uint256"
        }
      ],
      "stateMutability": "view",
      "type": "function"
    }
  ],
  "transactionHash": "0x2cc936a2a8cc33858a64fd50869484a00ae2ccfb678b968b6f9dbe5b3405488d",
  "args": [
    "0xe62bfbE57763ec24c0F130426F34DbCe11Fc5B06",
    1776297599,
    7776000
  ],
  "numDeployments": 2,
  "solcInputHash": "dc9c32b4040a6a7c42adfacdb1e0b1a8",
  "bytecode": "0x60806040523480156200001157600080fd5b50604051620017b6380380620017b68339810160408190526200003491620000b8565b600180546001600160a01b03199081163317909155600080546001600160a01b03959095169490911693909317909255600380546001600160401b0393841668010000000000000000026001600160801b031990911693909216929092171790556200010f565b80516001600160401b0381168114620000b357600080fd5b919050565b600080600060608486031215620000ce57600080fd5b83516001600160a01b0381168114620000e657600080fd5b9250620000f6602085016200009b565b915062000106604085016200009b565b90509250925092565b611697806200011f6000396000f3fe608060405234801561001057600080fd5b50600436106100b45760003560e01c80634f31a231116100715780634f31a231146101505780634fb2e45d14610163578063885aff0b14610176578063996b275914610189578063b77f39fe146101c2578063bf3506c1146101ca57600080fd5b8063016a0a4d146100b95780630289943d146100d05780630e2d1a2a14610102578063113fd9ee1461011557806343afdbbd1461012a5780634c33fe941461013d575b600080fd5b6002545b6040519081526020015b60405180910390f35b6003546100ea90600160401b90046001600160401b031681565b6040516001600160401b0390911681526020016100c7565b6100bd61011036600461139f565b6101dd565b6101286101233660046113ba565b610251565b005b6003546100ea906001600160401b031681565b61012861014b36600461139f565b6103cf565b61012861015e3660046113fa565b6106cc565b61012861017136600461139f565b610ab0565b610128610184366004611478565b610bf4565b61019c61019736600461139f565b610fbb565b604080516001600160601b039485168152939092166020840152908201526060016100c7565b61012861104e565b6100bd6101d836600461139f565b61124c565b6001600160a01b0381166000908152600460209081526040808320815160608101835290546001600160601b038082168084526001600160401b03600160601b84041695840195909552600160a01b909104169181018290529161024191906114f9565b6001600160601b03169392505050565b6001546001600160a01b031633146102845760405162461bcd60e51b815260040161027b90611520565b60405180910390fd5b6003546001600160401b031642106103045760405162461bcd60e51b815260206004820152603a60248201527f56657374696e673a206578697374696e672073746172742074696d657374616d60448201527f702068617320616c7265616479206265656e2072656163686564000000000000606482015260840161027b565b806001600160401b0316421061037a5760405162461bcd60e51b815260206004820152603560248201527f56657374696e673a2063616e206f6e6c792073657420612073746172742074696044820152746d657374616d7020696e207468652066757475726560581b606482015260840161027b565b6003805467ffffffffffffffff19166001600160401b0383169081179091556040519081527f1adc9dfcea88667ac2fe5cb6ead2f59118365559a7b15b91ad8fa81f55634b0d9060200160405180910390a150565b6001546001600160a01b031633146103f95760405162461bcd60e51b815260040161027b90611520565b6001600160a01b03811661045b5760405162461bcd60e51b815260206004820152602360248201527f56657374696e673a2063616e63656c20746f20746865207a65726f206164647260448201526265737360e81b606482015260840161027b565b6001600160a01b038116600090815260046020526040902080546001600160601b03166104de5760405162461bcd60e51b815260206004820152602b60248201527f56657374696e673a206e6f206163746976652076657374696e6720666f72207460448201526a1a1a5cc81858d8dbdd5b9d60aa1b606482015260840161027b565b6040805160608101825282546001600160601b0380821683526001600160401b03600160601b8304166020840152600160a01b9091041691810191909152600090610528906112ea565b82549091506000906105449083906001600160601b0316611550565b6001600160a01b03851660009081526004602052604081205590506105698183611569565b6002600082825461057a9190611550565b909155505081156106455760005460405163a9059cbb60e01b81526001600160a01b038681166004830152602482018590529091169063a9059cbb906044016020604051808303816000875af11580156105d8573d6000803e3d6000fd5b505050506040513d601f19601f820116820180604052508101906105fc919061157c565b506040516001600160601b03831681526001600160a01b038516907fe969a1021868fa58bb930e28b52ce8343509419f7505b7ea8221dfffbe217c0c9060200160405180910390a25b80156106c65760005460015460405163a9059cbb60e01b81526001600160a01b0391821660048201526024810184905291169063a9059cbb906044016020604051808303816000875af11580156106a0573d6000803e3d6000fd5b505050506040513d601f19601f820116820180604052508101906106c4919061157c565b505b50505050565b6003546001600160401b031642116107355760405162461bcd60e51b815260206004820152602660248201527f56657374696e673a2074696d657374616d70206e6f77206f7220696e2074686560448201526520706173743f60d01b606482015260840161027b565b6003546001600160401b03166000036107905760405162461bcd60e51b815260206004820152601e60248201527f56657374696e673a20636f6e7472616374206e6f74206c697665207965740000604482015260640161027b565b6001600160a01b0382166107f65760405162461bcd60e51b815260206004820152602760248201527f56657374696e673a207472616e736665722066726f6d20746865207a65726f206044820152666164647265737360c81b606482015260840161027b565b306001600160a01b0383160361084e5760405162461bcd60e51b815260206004820181905260248201527f56657374696e673a2073656e646572206973207468697320636f6e7472616374604482015260640161027b565b6000546001600160a01b03908116908316036108be5760405162461bcd60e51b815260206004820152602960248201527f56657374696e673a2073656e646572206973205f7469746e436f6e74726163746044820152680818dbdb9d1c9858dd60ba1b606482015260840161027b565b33600090815260046020908152604091829020825160608101845281546001600160601b0380821683526001600160401b03600160601b83041694830194909452600160a01b900490921692820192909252610919906112ea565b826001600160601b0316111561097c5760405162461bcd60e51b815260206004820152602260248201527f5449544e3a2063616e6e6f74207472616e73666572207665737465642066756e604482015261647360f01b606482015260840161027b565b8054829082906014906109a0908490600160a01b90046001600160601b031661159e565b92506101000a8154816001600160601b0302191690836001600160601b03160217905550816001600160601b0316600260008282546109df9190611550565b909155505060005460405163a9059cbb60e01b81526001600160a01b0385811660048301526001600160601b03851660248301529091169063a9059cbb906044016020604051808303816000875af1158015610a3f573d6000803e3d6000fd5b505050506040513d601f19601f82011682018060405250810190610a63919061157c565b506040516001600160601b03831681526001600160a01b038416907fe969a1021868fa58bb930e28b52ce8343509419f7505b7ea8221dfffbe217c0c9060200160405180910390a2505050565b6001546001600160a01b03163314610ada5760405162461bcd60e51b815260040161027b90611520565b6001600160a01b038116610b415760405162461bcd60e51b815260206004820152602860248201527f56657374696e673a207472616e73666572206f776e657220746865207a65726f604482015267206164647265737360c01b606482015260840161027b565b306001600160a01b03821603610baa5760405162461bcd60e51b815260206004820152602860248201527f56657374696e673a207472616e73666572206f776e657220746f20746869732060448201526718dbdb9d1c9858dd60c21b606482015260840161027b565b600180546001600160a01b0319166001600160a01b0383169081179091556040517f858ac4d8dc6c854f604e18771d27d0066054fe88f5d6721149df79353081ee2c90600090a250565b6001546001600160a01b03163314610c1e5760405162461bcd60e51b815260040161027b90611520565b828114610c855760405162461bcd60e51b815260206004820152602f60248201527f56657374696e673a206163636f756e747320616e6420616d6f756e7473206c6560448201526e0dccee8d040daeae6e840dac2e8c6d608b1b606482015260840161027b565b60005b83811015610ed75760046000868684818110610ca657610ca66115be565b9050602002016020810190610cbb919061139f565b6001600160a01b0316815260208101919091526040016000908120546001600160601b03169003610ecf57828282818110610cf857610cf86115be565b9050602002016020810190610d0d91906115d4565b6001600160601b031660026000828254610d279190611569565b925050819055506040518060600160405280848484818110610d4b57610d4b6115be565b9050602002016020810190610d6091906115d4565b6001600160601b03168152600354600160401b90046001600160401b0316602082015260006040909101819052600490878785818110610da257610da26115be565b9050602002016020810190610db7919061139f565b6001600160a01b0390811682526020808301939093526040918201600020845181549486015195909301516001600160601b03908116600160a01b026001600160401b03909616600160601b026001600160a01b031990951693169290921792909217909116919091179055848482818110610e3557610e356115be565b9050602002016020810190610e4a919061139f565b6001600160a01b03167fc96941c215c3a88dae4940fe6b0e42e12f8867e61930a4323581479aec073820848484818110610e8657610e866115be565b9050602002016020810190610e9b91906115d4565b600354604080516001600160601b039093168352600160401b9091046001600160401b031660208301520160405180910390a25b600101610c88565b506000546040516370a0823160e01b81523060048201526001600160a01b03909116906370a0823190602401602060405180830381865afa158015610f20573d6000803e3d6000fd5b505050506040513d601f19601f82011682018060405250810190610f4491906115ef565b60025411156106c65760405162461bcd60e51b815260206004820152603760248201527f56657374696e673a206e6f7420656e6f75676820746f6b656e7320696e20746860448201527f697320636f6e747261637420666f722076657374696e67000000000000000000606482015260840161027b565b6001600160a01b0381166000908152600460209081526040808320815160608101835290546001600160601b038082168084526001600160401b03600160601b8404811696850196909652600160a01b9092041692820183905260035490949293164211801561103557506003546001600160401b031615155b1561104657611043816112ea565b91505b509193909250565b6001546001600160a01b031633146110785760405162461bcd60e51b815260040161027b90611520565b600354611092906001600160401b03166301e13380611608565b6001600160401b03164210156110ff5760405162461bcd60e51b815260206004820152602c60248201527f4c6971756964526577617264733a2063616e206f6e6c79207265636f7665722060448201526b30b33a32b91018903cb2b0b960a11b606482015260840161027b565b600080546040516370a0823160e01b81523060048201526001600160a01b03909116906370a0823190602401602060405180830381865afa158015611148573d6000803e3d6000fd5b505050506040513d601f19601f8201168201806040525081019061116c91906115ef565b9050600081116111ca5760405162461bcd60e51b815260206004820152602360248201527f4c6971756964526577617264733a206e6f20746f6b656e7320746f207265636f6044820152623b32b960e91b606482015260840161027b565b600060028190555460015460405163a9059cbb60e01b81526001600160a01b0391821660048201526024810184905291169063a9059cbb906044016020604051808303816000875af1158015611224573d6000803e3d6000fd5b505050506040513d601f19601f82011682018060405250810190611248919061157c565b5050565b6003546000906001600160401b03164211158061127257506003546001600160401b0316155b1561127f57506000919050565b6001600160a01b038216600090815260046020908152604091829020825160608101845290546001600160601b0380821683526001600160401b03600160601b83041693830193909352600160a01b9004909116918101919091526112e3816112ea565b9392505050565b6003546000908190611305906001600160401b031642611550565b905060008184602001516001600160401b0316101561132f575082516001600160601b0316611363565b83602001516001600160401b03168285600001516001600160601b03166113569190611628565b611360919061163f565b90505b604084015161137b906001600160601b031682611550565b949350505050565b80356001600160a01b038116811461139a57600080fd5b919050565b6000602082840312156113b157600080fd5b6112e382611383565b6000602082840312156113cc57600080fd5b81356001600160401b03811681146112e357600080fd5b80356001600160601b038116811461139a57600080fd5b6000806040838503121561140d57600080fd5b61141683611383565b9150611424602084016113e3565b90509250929050565b60008083601f84011261143f57600080fd5b5081356001600160401b0381111561145657600080fd5b6020830191508360208260051b850101111561147157600080fd5b9250929050565b6000806000806040858703121561148e57600080fd5b84356001600160401b03808211156114a557600080fd5b6114b18883890161142d565b909650945060208701359150808211156114ca57600080fd5b506114d78782880161142d565b95989497509550505050565b634e487b7160e01b600052601160045260246000fd5b6001600160601b03828116828216039080821115611519576115196114e3565b5092915050565b6020808252601690820152752b32b9ba34b7339d103737ba103a34329037bbb732b960511b604082015260600190565b81810381811115611563576115636114e3565b92915050565b80820180821115611563576115636114e3565b60006020828403121561158e57600080fd5b815180151581146112e357600080fd5b6001600160601b03818116838216019080821115611519576115196114e3565b634e487b7160e01b600052603260045260246000fd5b6000602082840312156115e657600080fd5b6112e3826113e3565b60006020828403121561160157600080fd5b5051919050565b6001600160401b03818116838216019080821115611519576115196114e3565b8082028115828204841417611563576115636114e3565b60008261165c57634e487b7160e01b600052601260045260246000fd5b50049056fea2646970667358221220ed1b934f6a154d80d15e7532c6ec39aae78dd252115f6e063ef4d094953a500a64736f6c63430008160033",
  "devdoc": {
    "kind": "dev",
    "methods": {},
    "version": 1
  },
  "userdoc": {
    "kind": "user",
    "methods": {},
    "version": 1
  },
  "storageLayout": {
    "storage": [
      {
        "astId": 23,
        "contract": "contracts/LiquidRewards.sol:LiquidRewards",
        "label": "_titnContract",
        "offset": 0,
        "slot": "0",
        "type": "t_contract(ILiquidRewardsERC20Metadata)20"
      },
      {
        "astId": 25,
        "contract": "contracts/LiquidRewards.sol:LiquidRewards",
        "label": "_owner",
        "offset": 0,
        "slot": "1",
        "type": "t_address"
      },
      {
        "astId": 27,
        "contract": "contracts/LiquidRewards.sol:LiquidRewards",
        "label": "_vestedBalance",
        "offset": 0,
        "slot": "2",
        "type": "t_uint256"
      },
      {
        "astId": 29,
        "contract": "contracts/LiquidRewards.sol:LiquidRewards",
        "label": "_startTimestamp",
        "offset": 0,
        "slot": "3",
        "type": "t_uint64"
      },
      {
        "astId": 31,
        "contract": "contracts/LiquidRewards.sol:LiquidRewards",
        "label": "_vestingDuration",
        "offset": 8,
        "slot": "3",
        "type": "t_uint64"
      },
      {
        "astId": 36,
        "contract": "contracts/LiquidRewards.sol:LiquidRewards",
        "label": "_vesting",
        "offset": 0,
        "slot": "4",
        "type": "t_mapping(t_address,t_struct(VestingParams)43_storage)"
      }
    ],
    "types": {
      "t_address": {
        "encoding": "inplace",
        "label": "address",
        "numberOfBytes": "20"
      },
      "t_contract(ILiquidRewardsERC20Metadata)20": {
        "encoding": "inplace",
        "label": "contract ILiquidRewardsERC20Metadata",
        "numberOfBytes": "20"
      },
      "t_mapping(t_address,t_struct(VestingParams)43_storage)": {
        "encoding": "mapping",
        "key": "t_address",
        "label": "mapping(address => struct LiquidRewards.VestingParams)",
        "numberOfBytes": "32",
        "value": "t_struct(VestingParams)43_storage"
      },
      "t_struct(VestingParams)43_storage": {
        "encoding": "inplace",
        "label": "struct LiquidRewards.VestingParams",
        "members": [
          {
            "astId": 38,
            "contract": "contracts/LiquidRewards.sol:LiquidRewards",
            "label": "vestingAmount",
            "offset": 0,
            "slot": "0",
            "type": "t_uint96"
          },
          {
            "astId": 40,
            "contract": "contracts/LiquidRewards.sol:LiquidRewards",
            "label": "vestingDuration",
            "offset": 12,
            "slot": "0",
            "type": "t_uint64"
          },
          {
            "astId": 42,
            "contract": "contracts/LiquidRewards.sol:LiquidRewards",
            "label": "vestingClaimed",
            "offset": 20,
            "slot": "0",
            "type": "t_uint96"
          }
        ],
        "numberOfBytes": "32"
      },
      "t_uint256": {
        "encoding": "inplace",
        "label": "uint256",
        "numberOfBytes": "32"
      },
      "t_uint64": {
        "encoding": "inplace",
        "label": "uint64",
        "numberOfBytes": "8"
      },
      "t_uint96": {
        "encoding": "inplace",
        "label": "uint96",
        "numberOfBytes": "12"
      }
    }
  }
}