{
  "address": "0x583ecd462E6a8f3bBBa71eC3A3AaB53a7b6C01C0",
  "abi": [
    {
      "inputs": [
        {
          "internalType": "address",
          "name": "_usdc",
          "type": "address"
        }
      ],
      "stateMutability": "nonpayable",
      "type": "constructor"
    },
    {
      "anonymous": false,
      "inputs": [
        {
          "indexed": true,
          "internalType": "address",
          "name": "winner",
          "type": "address"
        },
        {
          "indexed": true,
          "internalType": "uint256",
          "name": "raffleId",
          "type": "uint256"
        },
        {
          "indexed": false,
          "internalType": "uint256",
          "name": "amount",
          "type": "uint256"
        }
      ],
      "name": "Claimed",
      "type": "event"
    },
    {
      "anonymous": false,
      "inputs": [
        {
          "indexed": false,
          "internalType": "uint256",
          "name": "amount",
          "type": "uint256"
        }
      ],
      "name": "ETHWithdrawn",
      "type": "event"
    },
    {
      "anonymous": false,
      "inputs": [
        {
          "indexed": true,
          "internalType": "uint256",
          "name": "raffleId",
          "type": "uint256"
        },
        {
          "indexed": false,
          "internalType": "uint256",
          "name": "amount",
          "type": "uint256"
        }
      ],
      "name": "ExpiredFundsRecovered",
      "type": "event"
    },
    {
      "anonymous": false,
      "inputs": [
        {
          "indexed": true,
          "internalType": "uint256",
          "name": "raffleId",
          "type": "uint256"
        },
        {
          "indexed": false,
          "internalType": "uint256",
          "name": "totalAmount",
          "type": "uint256"
        },
        {
          "indexed": false,
          "internalType": "uint256",
          "name": "timestamp",
          "type": "uint256"
        }
      ],
      "name": "RaffleFinalized",
      "type": "event"
    },
    {
      "anonymous": false,
      "inputs": [
        {
          "indexed": false,
          "internalType": "address",
          "name": "token",
          "type": "address"
        },
        {
          "indexed": false,
          "internalType": "uint256",
          "name": "amount",
          "type": "uint256"
        }
      ],
      "name": "TokensWithdrawn",
      "type": "event"
    },
    {
      "inputs": [],
      "name": "CLAIM_DURATION",
      "outputs": [
        {
          "internalType": "uint256",
          "name": "",
          "type": "uint256"
        }
      ],
      "stateMutability": "view",
      "type": "function"
    },
    {
      "inputs": [
        {
          "internalType": "uint256",
          "name": "raffleId",
          "type": "uint256"
        }
      ],
      "name": "claim",
      "outputs": [],
      "stateMutability": "nonpayable",
      "type": "function"
    },
    {
      "inputs": [],
      "name": "delegate",
      "outputs": [
        {
          "internalType": "address",
          "name": "",
          "type": "address"
        }
      ],
      "stateMutability": "view",
      "type": "function"
    },
    {
      "inputs": [
        {
          "internalType": "uint256",
          "name": "raffleId",
          "type": "uint256"
        },
        {
          "internalType": "address[]",
          "name": "winners",
          "type": "address[]"
        },
        {
          "internalType": "uint256[]",
          "name": "amounts",
          "type": "uint256[]"
        },
        {
          "internalType": "uint256",
          "name": "totalAmount",
          "type": "uint256"
        }
      ],
      "name": "finalizeRaffle",
      "outputs": [],
      "stateMutability": "nonpayable",
      "type": "function"
    },
    {
      "inputs": [],
      "name": "getAvailableUsdc",
      "outputs": [
        {
          "internalType": "uint256",
          "name": "",
          "type": "uint256"
        }
      ],
      "stateMutability": "view",
      "type": "function"
    },
    {
      "inputs": [
        {
          "internalType": "address",
          "name": "user",
          "type": "address"
        },
        {
          "internalType": "uint256",
          "name": "raffleId",
          "type": "uint256"
        }
      ],
      "name": "getClaimable",
      "outputs": [
        {
          "internalType": "uint256",
          "name": "",
          "type": "uint256"
        }
      ],
      "stateMutability": "view",
      "type": "function"
    },
    {
      "inputs": [],
      "name": "lockedAmount",
      "outputs": [
        {
          "internalType": "uint256",
          "name": "",
          "type": "uint256"
        }
      ],
      "stateMutability": "view",
      "type": "function"
    },
    {
      "inputs": [],
      "name": "owner",
      "outputs": [
        {
          "internalType": "address",
          "name": "",
          "type": "address"
        }
      ],
      "stateMutability": "view",
      "type": "function"
    },
    {
      "inputs": [
        {
          "internalType": "uint256",
          "name": "raffleId",
          "type": "uint256"
        },
        {
          "internalType": "address[]",
          "name": "unclaimedWinners",
          "type": "address[]"
        }
      ],
      "name": "recoverExpiredFunds",
      "outputs": [],
      "stateMutability": "nonpayable",
      "type": "function"
    },
    {
      "inputs": [
        {
          "internalType": "address",
          "name": "_delegate",
          "type": "address"
        }
      ],
      "name": "setDelegate",
      "outputs": [],
      "stateMutability": "nonpayable",
      "type": "function"
    },
    {
      "inputs": [
        {
          "internalType": "address",
          "name": "newOwner",
          "type": "address"
        }
      ],
      "name": "updateOwner",
      "outputs": [],
      "stateMutability": "nonpayable",
      "type": "function"
    },
    {
      "inputs": [],
      "name": "usdc",
      "outputs": [
        {
          "internalType": "contract IERC20",
          "name": "",
          "type": "address"
        }
      ],
      "stateMutability": "view",
      "type": "function"
    },
    {
      "inputs": [],
      "name": "withdrawETH",
      "outputs": [],
      "stateMutability": "nonpayable",
      "type": "function"
    },
    {
      "inputs": [
        {
          "internalType": "address",
          "name": "_token",
          "type": "address"
        }
      ],
      "name": "withdrawTokens",
      "outputs": [],
      "stateMutability": "nonpayable",
      "type": "function"
    }
  ],
  "transactionHash": "0x1d343b8681cc6e6071465a5da94ec034452394f636e0b6ced228f867677dc4ad",
  "args": [
    "0x833589fcd6edb6e08f4c7c32d4f71b54bda02913"
  ],
  "numDeployments": 1,
  "solcInputHash": "dc267802ab1534a33dca65fffc842099",
  "bytecode": "0x608060405234801561001057600080fd5b506040516112c73803806112c783398101604081905261002f91610062565b60008054336001600160a01b031991821617909155600280549091166001600160a01b0392909216919091179055610092565b60006020828403121561007457600080fd5b81516001600160a01b038116811461008b57600080fd5b9392505050565b611226806100a16000396000f3fe608060405234801561001057600080fd5b50600436106100ea5760003560e01c80638da5cb5b1161008c578063e086e5ec11610066578063e086e5ec146101d0578063e8b645db146101d8578063f6698d1c146101eb578063ff844a63146101f357600080fd5b80638da5cb5b14610197578063c89e4361146101aa578063ca5eb5e1146101bd57600080fd5b806349df728c116100c857806349df728c146101475780636ab28bc81461015a5780636f5244b114610171578063880cdc311461018457600080fd5b8063379607f5146100ef5780633e413bee14610104578063450fa82514610134575b600080fd5b6101026100fd366004610fa5565b6101fd565b005b600254610117906001600160a01b031681565b6040516001600160a01b0390911681526020015b60405180910390f35b61010261014236600461100a565b610477565b610102610155366004611072565b610734565b61016360035481565b60405190815260200161012b565b61016361017f366004611094565b610932565b610102610192366004611072565b6109c6565b600054610117906001600160a01b031681565b600154610117906001600160a01b031681565b6101026101cb366004611072565b610a5c565b610102610aa8565b6101026101e63660046110be565b610b85565b610163610f0f565b61016362278d0081565b6000818152600460205260409020600281015460ff166102545760405162461bcd60e51b815260206004820152600d60248201526c139bdd08199a5b985b1a5e9959609a1b60448201526064015b60405180910390fd5b62278d0081600101546102679190611156565b4211156102ad5760405162461bcd60e51b815260206004820152601460248201527310db185a5b481c195c9a5bd908195e1c1a5c995960621b604482015260640161024b565b336000908152600382016020526040902054806102fb5760405162461bcd60e51b815260206004820152600c60248201526b2737ba1030903bb4b73732b960a11b604482015260640161024b565b33600090815260048301602052604090205460ff161561034f5760405162461bcd60e51b815260206004820152600f60248201526e105b1c9958591e4818db185a5b5959608a1b604482015260640161024b565b3360008181526004848101602052604091829020805460ff19166001179055600254915163a9059cbb60e01b815290810192909252602482018390526001600160a01b03169063a9059cbb906044016020604051808303816000875af11580156103bd573d6000803e3d6000fd5b505050506040513d601f19601f820116820180604052508101906103e19190611169565b6104245760405162461bcd60e51b81526020600482015260146024820152731554d110c81d1c985b9cd9995c8819985a5b195960621b604482015260640161024b565b8060036000828254610436919061118b565b9091555050604051818152839033907f987d620f307ff6b94d58743cb7a7509f24071586a77759b77c2d4e29f75a2f9a9060200160405180910390a3505050565b6000546001600160a01b031633146104a15760405162461bcd60e51b815260040161024b9061119e565b6000838152600460205260409020600281015460ff166104f35760405162461bcd60e51b815260206004820152600d60248201526c139bdd08199a5b985b1a5e9959609a1b604482015260640161024b565b62278d0081600101546105069190611156565b42116105545760405162461bcd60e51b815260206004820152601860248201527f436c61696d20706572696f64206e6f7420657870697265640000000000000000604482015260640161024b565b6000805b8381101561061f576000858583818110610574576105746111c1565b90506020020160208101906105899190611072565b6001600160a01b038116600090815260048601602052604090205490915060ff161580156105d057506001600160a01b038116600090815260038501602052604090205415155b15610616576001600160a01b038116600090815260038501602090815260408083205460048801909252909120805460ff191660011790556106128185611156565b9350505b50600101610558565b50801561072d5760025460005460405163a9059cbb60e01b81526001600160a01b0391821660048201526024810184905291169063a9059cbb906044016020604051808303816000875af115801561067b573d6000803e3d6000fd5b505050506040513d601f19601f8201168201806040525081019061069f9190611169565b6106e05760405162461bcd60e51b81526020600482015260126024820152711554d110c81c99599d5b990819985a5b195960721b604482015260640161024b565b80600360008282546106f2919061118b565b909155505060405181815285907fad781edc94fb266dabdd78b4659175b73095d9ea8d5a1a561050831e2d9d21bb9060200160405180910390a25b5050505050565b6000546001600160a01b0316331461075e5760405162461bcd60e51b815260040161024b9061119e565b6002546001600160a01b03908116908216036107bc5760405162461bcd60e51b815260206004820152601d60248201527f43616e6e6f74207769746864726177207072696d61727920746f6b656e000000604482015260640161024b565b6040516370a0823160e01b815230600482015281906000906001600160a01b038316906370a0823190602401602060405180830381865afa158015610805573d6000803e3d6000fd5b505050506040513d601f19601f8201168201806040525081019061082991906111d7565b9050600081116108735760405162461bcd60e51b81526020600482015260156024820152744e6f20746f6b656e7320746f20776974686472617760581b604482015260640161024b565b60005460405163a9059cbb60e01b81526001600160a01b039182166004820152602481018390529083169063a9059cbb906044016020604051808303816000875af11580156108c6573d6000803e3d6000fd5b505050506040513d601f19601f820116820180604052508101906108ea9190611169565b50604080516001600160a01b0385168152602081018390527f6352c5382c4a4578e712449ca65e83cdb392d045dfcf1cad9615189db2da244b910160405180910390a1505050565b6000818152600460205260408120600281015460ff16158061096e57506001600160a01b038416600090815260048201602052604090205460ff165b1561097d5760009150506109c0565b62278d0081600101546109909190611156565b4211156109a15760009150506109c0565b6001600160a01b03841660009081526003909101602052604090205490505b92915050565b6000546001600160a01b031633146109f05760405162461bcd60e51b815260040161024b9061119e565b6001600160a01b038116610a3a5760405162461bcd60e51b815260206004820152601160248201527024b73b30b634b2103732bb9037bbb732b960791b604482015260640161024b565b600080546001600160a01b0319166001600160a01b0392909216919091179055565b6000546001600160a01b03163314610a865760405162461bcd60e51b815260040161024b9061119e565b600180546001600160a01b0319166001600160a01b0392909216919091179055565b6000546001600160a01b03163314610ad25760405162461bcd60e51b815260040161024b9061119e565b4780610b155760405162461bcd60e51b81526020600482015260126024820152714e6f2045544820746f20776974686472617760701b604482015260640161024b565b600080546040516001600160a01b039091169183156108fc02918491818181858888f19350505050158015610b4e573d6000803e3d6000fd5b506040518181527f043f607a14d3b4f0a11a0b2e192bbfcd894298ba5abf22553be6081406db28aa9060200160405180910390a150565b6000546001600160a01b0316331480610ba857506001546001600160a01b031633145b610be55760405162461bcd60e51b815260206004820152600e60248201526d139bdd08185d5d1a1bdc9a5e995960921b604482015260640161024b565b60008681526004602052604090206002015460ff1615610c3b5760405162461bcd60e51b8152602060048201526011602482015270105b1c9958591e48199a5b985b1a5e9959607a1b604482015260640161024b565b838214610c7c5760405162461bcd60e51b815260206004820152600f60248201526e098cadccee8d040dad2e6dac2e8c6d608b1b604482015260640161024b565b80600354610c8a9190611156565b6002546040516370a0823160e01b81523060048201526001600160a01b03909116906370a0823190602401602060405180830381865afa158015610cd2573d6000803e3d6000fd5b505050506040513d601f19601f82011682018060405250810190610cf691906111d7565b1015610d545760405162461bcd60e51b815260206004820152602760248201527f496e73756666696369656e7420617661696c61626c65205553444320696e20636044820152661bdb9d1c9858dd60ca1b606482015260840161024b565b60008681526004602052604081208281554260018083019190915560028201805460ff19169091179055905b85811015610eb4576000878783818110610d9c57610d9c6111c1565b9050602002016020810190610db19190611072565b6001600160a01b031603610df65760405162461bcd60e51b815260206004820152600c60248201526b5a65726f206164647265737360a01b604482015260640161024b565b6000858583818110610e0a57610e0a6111c1565b9050602002013511610e4c5760405162461bcd60e51b815260206004820152600b60248201526a16995c9bc8185b5bdd5b9d60aa1b604482015260640161024b565b848482818110610e5e57610e5e6111c1565b90506020020135826003016000898985818110610e7d57610e7d6111c1565b9050602002016020810190610e929190611072565b6001600160a01b03168152602081019190915260400160002055600101610d80565b508160036000828254610ec79190611156565b90915550506040805183815242602082015288917fea5b93b18a0346b4010429d3b4b1e011b8f62d5673b675f6e035deb10062d953910160405180910390a250505050505050565b6002546040516370a0823160e01b815230600482015260009182916001600160a01b03909116906370a0823190602401602060405180830381865afa158015610f5c573d6000803e3d6000fd5b505050506040513d601f19601f82011682018060405250810190610f8091906111d7565b90506003548111610f92576000610f9f565b600354610f9f908261118b565b91505090565b600060208284031215610fb757600080fd5b5035919050565b60008083601f840112610fd057600080fd5b50813567ffffffffffffffff811115610fe857600080fd5b6020830191508360208260051b850101111561100357600080fd5b9250929050565b60008060006040848603121561101f57600080fd5b83359250602084013567ffffffffffffffff81111561103d57600080fd5b61104986828701610fbe565b9497909650939450505050565b80356001600160a01b038116811461106d57600080fd5b919050565b60006020828403121561108457600080fd5b61108d82611056565b9392505050565b600080604083850312156110a757600080fd5b6110b083611056565b946020939093013593505050565b600080600080600080608087890312156110d757600080fd5b86359550602087013567ffffffffffffffff808211156110f657600080fd5b6111028a838b01610fbe565b9097509550604089013591508082111561111b57600080fd5b5061112889828a01610fbe565b979a9699509497949695606090950135949350505050565b634e487b7160e01b600052601160045260246000fd5b808201808211156109c0576109c0611140565b60006020828403121561117b57600080fd5b8151801515811461108d57600080fd5b818103818111156109c0576109c0611140565b6020808252600990820152682737ba1037bbb732b960b91b604082015260600190565b634e487b7160e01b600052603260045260246000fd5b6000602082840312156111e957600080fd5b505191905056fea26469706673582212202c43cb0ac0999c3399cd950b4d79121a02e63423635a45dd87985c1512d4a96764736f6c63430008160033",
  "devdoc": {
    "kind": "dev",
    "methods": {},
    "version": 1
  },
  "userdoc": {
    "kind": "user",
    "methods": {},
    "version": 1
  },
  "storageLayout": {
    "storage": [
      {
        "astId": 31,
        "contract": "contracts/RafflePayout.sol:RafflePayout",
        "label": "owner",
        "offset": 0,
        "slot": "0",
        "type": "t_address"
      },
      {
        "astId": 33,
        "contract": "contracts/RafflePayout.sol:RafflePayout",
        "label": "delegate",
        "offset": 0,
        "slot": "1",
        "type": "t_address"
      },
      {
        "astId": 36,
        "contract": "contracts/RafflePayout.sol:RafflePayout",
        "label": "usdc",
        "offset": 0,
        "slot": "2",
        "type": "t_contract(IERC20)29"
      },
      {
        "astId": 41,
        "contract": "contracts/RafflePayout.sol:RafflePayout",
        "label": "lockedAmount",
        "offset": 0,
        "slot": "3",
        "type": "t_uint256"
      },
      {
        "astId": 61,
        "contract": "contracts/RafflePayout.sol:RafflePayout",
        "label": "raffles",
        "offset": 0,
        "slot": "4",
        "type": "t_mapping(t_uint256,t_struct(Raffle)56_storage)"
      }
    ],
    "types": {
      "t_address": {
        "encoding": "inplace",
        "label": "address",
        "numberOfBytes": "20"
      },
      "t_bool": {
        "encoding": "inplace",
        "label": "bool",
        "numberOfBytes": "1"
      },
      "t_contract(IERC20)29": {
        "encoding": "inplace",
        "label": "contract IERC20",
        "numberOfBytes": "20"
      },
      "t_mapping(t_address,t_bool)": {
        "encoding": "mapping",
        "key": "t_address",
        "label": "mapping(address => bool)",
        "numberOfBytes": "32",
        "value": "t_bool"
      },
      "t_mapping(t_address,t_uint256)": {
        "encoding": "mapping",
        "key": "t_address",
        "label": "mapping(address => uint256)",
        "numberOfBytes": "32",
        "value": "t_uint256"
      },
      "t_mapping(t_uint256,t_struct(Raffle)56_storage)": {
        "encoding": "mapping",
        "key": "t_uint256",
        "label": "mapping(uint256 => struct RafflePayout.Raffle)",
        "numberOfBytes": "32",
        "value": "t_struct(Raffle)56_storage"
      },
      "t_struct(Raffle)56_storage": {
        "encoding": "inplace",
        "label": "struct RafflePayout.Raffle",
        "members": [
          {
            "astId": 43,
            "contract": "contracts/RafflePayout.sol:RafflePayout",
            "label": "totalAmount",
            "offset": 0,
            "slot": "0",
            "type": "t_uint256"
          },
          {
            "astId": 45,
            "contract": "contracts/RafflePayout.sol:RafflePayout",
            "label": "timestamp",
            "offset": 0,
            "slot": "1",
            "type": "t_uint256"
          },
          {
            "astId": 47,
            "contract": "contracts/RafflePayout.sol:RafflePayout",
            "label": "finalized",
            "offset": 0,
            "slot": "2",
            "type": "t_bool"
          },
          {
            "astId": 51,
            "contract": "contracts/RafflePayout.sol:RafflePayout",
            "label": "winners",
            "offset": 0,
            "slot": "3",
            "type": "t_mapping(t_address,t_uint256)"
          },
          {
            "astId": 55,
            "contract": "contracts/RafflePayout.sol:RafflePayout",
            "label": "claimed",
            "offset": 0,
            "slot": "4",
            "type": "t_mapping(t_address,t_bool)"
          }
        ],
        "numberOfBytes": "160"
      },
      "t_uint256": {
        "encoding": "inplace",
        "label": "uint256",
        "numberOfBytes": "32"
      }
    }
  }
}