{
  "address": "0xF6A308191Cc347DaA2725075847CaE86Fa24FEf6",
  "abi": [
    {
      "inputs": [
        {
          "internalType": "address",
          "name": "titnContract",
          "type": "address"
        },
        {
          "internalType": "uint64",
          "name": "startTimestamp",
          "type": "uint64"
        },
        {
          "internalType": "uint64",
          "name": "vestingDuration",
          "type": "uint64"
        }
      ],
      "stateMutability": "nonpayable",
      "type": "constructor"
    },
    {
      "anonymous": false,
      "inputs": [
        {
          "indexed": true,
          "internalType": "address",
          "name": "account",
          "type": "address"
        },
        {
          "indexed": false,
          "internalType": "uint96",
          "name": "amount",
          "type": "uint96"
        }
      ],
      "name": "Claim",
      "type": "event"
    },
    {
      "anonymous": false,
      "inputs": [
        {
          "indexed": false,
          "internalType": "uint64",
          "name": "startTimestamp",
          "type": "uint64"
        }
      ],
      "name": "SetStartTimestamp",
      "type": "event"
    },
    {
      "anonymous": false,
      "inputs": [
        {
          "indexed": true,
          "internalType": "address",
          "name": "owner",
          "type": "address"
        }
      ],
      "name": "TransferOwner",
      "type": "event"
    },
    {
      "anonymous": false,
      "inputs": [
        {
          "indexed": true,
          "internalType": "address",
          "name": "account",
          "type": "address"
        },
        {
          "indexed": false,
          "internalType": "uint96",
          "name": "amount",
          "type": "uint96"
        },
        {
          "indexed": false,
          "internalType": "uint64",
          "name": "vestingDuration",
          "type": "uint64"
        }
      ],
      "name": "Vested",
      "type": "event"
    },
    {
      "inputs": [],
      "name": "_startTimestamp",
      "outputs": [
        {
          "internalType": "uint64",
          "name": "",
          "type": "uint64"
        }
      ],
      "stateMutability": "view",
      "type": "function"
    },
    {
      "inputs": [],
      "name": "_vestingDuration",
      "outputs": [
        {
          "internalType": "uint64",
          "name": "",
          "type": "uint64"
        }
      ],
      "stateMutability": "view",
      "type": "function"
    },
    {
      "inputs": [
        {
          "internalType": "address",
          "name": "vested",
          "type": "address"
        }
      ],
      "name": "canClaim",
      "outputs": [
        {
          "internalType": "uint256",
          "name": "",
          "type": "uint256"
        }
      ],
      "stateMutability": "view",
      "type": "function"
    },
    {
      "inputs": [
        {
          "internalType": "address",
          "name": "account",
          "type": "address"
        }
      ],
      "name": "cancel",
      "outputs": [],
      "stateMutability": "nonpayable",
      "type": "function"
    },
    {
      "inputs": [
        {
          "internalType": "address",
          "name": "to",
          "type": "address"
        },
        {
          "internalType": "uint96",
          "name": "amount",
          "type": "uint96"
        }
      ],
      "name": "claim",
      "outputs": [],
      "stateMutability": "nonpayable",
      "type": "function"
    },
    {
      "inputs": [
        {
          "internalType": "uint64",
          "name": "startTimestamp",
          "type": "uint64"
        }
      ],
      "name": "setStartTimestamp",
      "outputs": [],
      "stateMutability": "nonpayable",
      "type": "function"
    },
    {
      "inputs": [
        {
          "internalType": "address",
          "name": "newOwner",
          "type": "address"
        }
      ],
      "name": "transferOwner",
      "outputs": [],
      "stateMutability": "nonpayable",
      "type": "function"
    },
    {
      "inputs": [
        {
          "internalType": "address[]",
          "name": "accounts",
          "type": "address[]"
        },
        {
          "internalType": "uint96[]",
          "name": "amounts",
          "type": "uint96[]"
        }
      ],
      "name": "vest",
      "outputs": [],
      "stateMutability": "nonpayable",
      "type": "function"
    },
    {
      "inputs": [],
      "name": "vestedBalance",
      "outputs": [
        {
          "internalType": "uint256",
          "name": "",
          "type": "uint256"
        }
      ],
      "stateMutability": "view",
      "type": "function"
    },
    {
      "inputs": [
        {
          "internalType": "address",
          "name": "vested",
          "type": "address"
        }
      ],
      "name": "vestedBalanceOf",
      "outputs": [
        {
          "internalType": "uint256",
          "name": "",
          "type": "uint256"
        }
      ],
      "stateMutability": "view",
      "type": "function"
    }
  ],
  "transactionHash": "0xc4571f7d0787cd58508cf75c07441f2f7bd44b79e87ee049b41873b1bcd0c695",
  "args": [
    "0xe62bfbE57763ec24c0F130426F34DbCe11Fc5B06",
    1754030520,
    94608000
  ],
  "numDeployments": 2,
  "solcInputHash": "b092139a39a4b389061891de756ce0af",
  "bytecode": "0x608060405234801561001057600080fd5b506040516114a03803806114a083398101604081905261002f916100b1565b600180546001600160a01b03199081163317909155600080546001600160a01b03959095169490911693909317909255600380546001600160401b0393841668010000000000000000026001600160801b03199091169390921692909217179055610102565b80516001600160401b03811681146100ac57600080fd5b919050565b6000806000606084860312156100c657600080fd5b83516001600160a01b03811681146100dd57600080fd5b92506100eb60208501610095565b91506100f960408501610095565b90509250925092565b61138f806101116000396000f3fe608060405234801561001057600080fd5b506004361061009e5760003560e01c80634c33fe94116100665780634c33fe94146101275780634f31a2311461013a5780634fb2e45d1461014d578063885aff0b14610160578063bf3506c11461017357600080fd5b8063016a0a4d146100a35780630289943d146100ba5780630e2d1a2a146100ec578063113fd9ee146100ff57806343afdbbd14610114575b600080fd5b6002545b6040519081526020015b60405180910390f35b6003546100d490600160401b90046001600160401b031681565b6040516001600160401b0390911681526020016100b1565b6100a76100fa3660046110b7565b610186565b61011261010d3660046110d2565b6101fa565b005b6003546100d4906001600160401b031681565b6101126101353660046110b7565b610378565b610112610148366004611112565b610675565b61011261015b3660046110b7565b610a59565b61011261016e366004611190565b610b9d565b6100a76101813660046110b7565b610f64565b6001600160a01b0381166000908152600460209081526040808320815160608101835290546001600160601b038082168084526001600160401b03600160601b84041695840195909552600160a01b90910416918101829052916101ea9190611211565b6001600160601b03169392505050565b6001546001600160a01b0316331461022d5760405162461bcd60e51b815260040161022490611238565b60405180910390fd5b6003546001600160401b031642106102ad5760405162461bcd60e51b815260206004820152603a60248201527f56657374696e673a206578697374696e672073746172742074696d657374616d60448201527f702068617320616c7265616479206265656e20726561636865640000000000006064820152608401610224565b806001600160401b031642106103235760405162461bcd60e51b815260206004820152603560248201527f56657374696e673a2063616e206f6e6c792073657420612073746172742074696044820152746d657374616d7020696e207468652066757475726560581b6064820152608401610224565b6003805467ffffffffffffffff19166001600160401b0383169081179091556040519081527f1adc9dfcea88667ac2fe5cb6ead2f59118365559a7b15b91ad8fa81f55634b0d9060200160405180910390a150565b6001546001600160a01b031633146103a25760405162461bcd60e51b815260040161022490611238565b6001600160a01b0381166104045760405162461bcd60e51b815260206004820152602360248201527f56657374696e673a2063616e63656c20746f20746865207a65726f206164647260448201526265737360e81b6064820152608401610224565b6001600160a01b038116600090815260046020526040902080546001600160601b03166104875760405162461bcd60e51b815260206004820152602b60248201527f56657374696e673a206e6f206163746976652076657374696e6720666f72207460448201526a1a1a5cc81858d8dbdd5b9d60aa1b6064820152608401610224565b6040805160608101825282546001600160601b0380821683526001600160401b03600160601b8304166020840152600160a01b90910416918101919091526000906104d190611002565b82549091506000906104ed9083906001600160601b0316611268565b6001600160a01b03851660009081526004602052604081205590506105128183611281565b600260008282546105239190611268565b909155505081156105ee5760005460405163a9059cbb60e01b81526001600160a01b038681166004830152602482018590529091169063a9059cbb906044016020604051808303816000875af1158015610581573d6000803e3d6000fd5b505050506040513d601f19601f820116820180604052508101906105a59190611294565b506040516001600160601b03831681526001600160a01b038516907fe969a1021868fa58bb930e28b52ce8343509419f7505b7ea8221dfffbe217c0c9060200160405180910390a25b801561066f5760005460015460405163a9059cbb60e01b81526001600160a01b0391821660048201526024810184905291169063a9059cbb906044016020604051808303816000875af1158015610649573d6000803e3d6000fd5b505050506040513d601f19601f8201168201806040525081019061066d9190611294565b505b50505050565b6003546001600160401b031642116106de5760405162461bcd60e51b815260206004820152602660248201527f56657374696e673a2074696d657374616d70206e6f77206f7220696e2074686560448201526520706173743f60d01b6064820152608401610224565b6003546001600160401b03166000036107395760405162461bcd60e51b815260206004820152601e60248201527f56657374696e673a20636f6e7472616374206e6f74206c6976652079657400006044820152606401610224565b6001600160a01b03821661079f5760405162461bcd60e51b815260206004820152602760248201527f56657374696e673a207472616e736665722066726f6d20746865207a65726f206044820152666164647265737360c81b6064820152608401610224565b306001600160a01b038316036107f75760405162461bcd60e51b815260206004820181905260248201527f56657374696e673a2073656e646572206973207468697320636f6e74726163746044820152606401610224565b6000546001600160a01b03908116908316036108675760405162461bcd60e51b815260206004820152602960248201527f56657374696e673a2073656e646572206973205f7469746e436f6e74726163746044820152680818dbdb9d1c9858dd60ba1b6064820152608401610224565b33600090815260046020908152604091829020825160608101845281546001600160601b0380821683526001600160401b03600160601b83041694830194909452600160a01b9004909216928201929092526108c290611002565b826001600160601b031611156109255760405162461bcd60e51b815260206004820152602260248201527f5449544e3a2063616e6e6f74207472616e73666572207665737465642066756e604482015261647360f01b6064820152608401610224565b805482908290601490610949908490600160a01b90046001600160601b03166112b6565b92506101000a8154816001600160601b0302191690836001600160601b03160217905550816001600160601b0316600260008282546109889190611268565b909155505060005460405163a9059cbb60e01b81526001600160a01b0385811660048301526001600160601b03851660248301529091169063a9059cbb906044016020604051808303816000875af11580156109e8573d6000803e3d6000fd5b505050506040513d601f19601f82011682018060405250810190610a0c9190611294565b506040516001600160601b03831681526001600160a01b038416907fe969a1021868fa58bb930e28b52ce8343509419f7505b7ea8221dfffbe217c0c9060200160405180910390a2505050565b6001546001600160a01b03163314610a835760405162461bcd60e51b815260040161022490611238565b6001600160a01b038116610aea5760405162461bcd60e51b815260206004820152602860248201527f56657374696e673a207472616e73666572206f776e657220746865207a65726f604482015267206164647265737360c01b6064820152608401610224565b306001600160a01b03821603610b535760405162461bcd60e51b815260206004820152602860248201527f56657374696e673a207472616e73666572206f776e657220746f20746869732060448201526718dbdb9d1c9858dd60c21b6064820152608401610224565b600180546001600160a01b0319166001600160a01b0383169081179091556040517f858ac4d8dc6c854f604e18771d27d0066054fe88f5d6721149df79353081ee2c90600090a250565b6001546001600160a01b03163314610bc75760405162461bcd60e51b815260040161022490611238565b828114610c2e5760405162461bcd60e51b815260206004820152602f60248201527f56657374696e673a206163636f756e747320616e6420616d6f756e7473206c6560448201526e0dccee8d040daeae6e840dac2e8c6d608b1b6064820152608401610224565b60005b83811015610e805760046000868684818110610c4f57610c4f6112d6565b9050602002016020810190610c6491906110b7565b6001600160a01b0316815260208101919091526040016000908120546001600160601b03169003610e7857828282818110610ca157610ca16112d6565b9050602002016020810190610cb691906112ec565b6001600160601b031660026000828254610cd09190611281565b925050819055506040518060600160405280848484818110610cf457610cf46112d6565b9050602002016020810190610d0991906112ec565b6001600160601b03168152600354600160401b90046001600160401b0316602082015260006040909101819052600490878785818110610d4b57610d4b6112d6565b9050602002016020810190610d6091906110b7565b6001600160a01b0390811682526020808301939093526040918201600020845181549486015195909301516001600160601b03908116600160a01b026001600160401b03909616600160601b026001600160a01b031990951693169290921792909217909116919091179055848482818110610dde57610dde6112d6565b9050602002016020810190610df391906110b7565b6001600160a01b03167fc96941c215c3a88dae4940fe6b0e42e12f8867e61930a4323581479aec073820848484818110610e2f57610e2f6112d6565b9050602002016020810190610e4491906112ec565b600354604080516001600160601b039093168352600160401b9091046001600160401b031660208301520160405180910390a25b600101610c31565b506000546040516370a0823160e01b81523060048201526001600160a01b03909116906370a0823190602401602060405180830381865afa158015610ec9573d6000803e3d6000fd5b505050506040513d601f19601f82011682018060405250810190610eed9190611307565b600254111561066f5760405162461bcd60e51b815260206004820152603760248201527f56657374696e673a206e6f7420656e6f75676820746f6b656e7320696e20746860448201527f697320636f6e747261637420666f722076657374696e670000000000000000006064820152608401610224565b6003546000906001600160401b031642111580610f8a57506003546001600160401b0316155b15610f9757506000919050565b6001600160a01b038216600090815260046020908152604091829020825160608101845290546001600160601b0380821683526001600160401b03600160601b83041693830193909352600160a01b900490911691810191909152610ffb81611002565b9392505050565b600354600090819061101d906001600160401b031642611268565b905060008184602001516001600160401b03161015611047575082516001600160601b031661107b565b83602001516001600160401b03168285600001516001600160601b031661106e9190611320565b6110789190611337565b90505b6040840151611093906001600160601b031682611268565b949350505050565b80356001600160a01b03811681146110b257600080fd5b919050565b6000602082840312156110c957600080fd5b610ffb8261109b565b6000602082840312156110e457600080fd5b81356001600160401b0381168114610ffb57600080fd5b80356001600160601b03811681146110b257600080fd5b6000806040838503121561112557600080fd5b61112e8361109b565b915061113c602084016110fb565b90509250929050565b60008083601f84011261115757600080fd5b5081356001600160401b0381111561116e57600080fd5b6020830191508360208260051b850101111561118957600080fd5b9250929050565b600080600080604085870312156111a657600080fd5b84356001600160401b03808211156111bd57600080fd5b6111c988838901611145565b909650945060208701359150808211156111e257600080fd5b506111ef87828801611145565b95989497509550505050565b634e487b7160e01b600052601160045260246000fd5b6001600160601b03828116828216039080821115611231576112316111fb565b5092915050565b6020808252601690820152752b32b9ba34b7339d103737ba103a34329037bbb732b960511b604082015260600190565b8181038181111561127b5761127b6111fb565b92915050565b8082018082111561127b5761127b6111fb565b6000602082840312156112a657600080fd5b81518015158114610ffb57600080fd5b6001600160601b03818116838216019080821115611231576112316111fb565b634e487b7160e01b600052603260045260246000fd5b6000602082840312156112fe57600080fd5b610ffb826110fb565b60006020828403121561131957600080fd5b5051919050565b808202811582820484141761127b5761127b6111fb565b60008261135457634e487b7160e01b600052601260045260246000fd5b50049056fea26469706673582212202aaaff0f0e125c2a1b99e0817b8195f51bb17e16b4fd08d3a52cf4669c7516bc64736f6c63430008160033",
  "devdoc": {
    "kind": "dev",
    "methods": {},
    "version": 1
  },
  "userdoc": {
    "kind": "user",
    "methods": {},
    "version": 1
  },
  "storageLayout": {
    "storage": [
      {
        "astId": 23,
        "contract": "contracts/TitnVestingWithCancel.sol:TitnVestingWithCancel",
        "label": "_titnContract",
        "offset": 0,
        "slot": "0",
        "type": "t_contract(ITITNERC20Metadata)20"
      },
      {
        "astId": 25,
        "contract": "contracts/TitnVestingWithCancel.sol:TitnVestingWithCancel",
        "label": "_owner",
        "offset": 0,
        "slot": "1",
        "type": "t_address"
      },
      {
        "astId": 27,
        "contract": "contracts/TitnVestingWithCancel.sol:TitnVestingWithCancel",
        "label": "_vestedBalance",
        "offset": 0,
        "slot": "2",
        "type": "t_uint256"
      },
      {
        "astId": 29,
        "contract": "contracts/TitnVestingWithCancel.sol:TitnVestingWithCancel",
        "label": "_startTimestamp",
        "offset": 0,
        "slot": "3",
        "type": "t_uint64"
      },
      {
        "astId": 31,
        "contract": "contracts/TitnVestingWithCancel.sol:TitnVestingWithCancel",
        "label": "_vestingDuration",
        "offset": 8,
        "slot": "3",
        "type": "t_uint64"
      },
      {
        "astId": 36,
        "contract": "contracts/TitnVestingWithCancel.sol:TitnVestingWithCancel",
        "label": "_vesting",
        "offset": 0,
        "slot": "4",
        "type": "t_mapping(t_address,t_struct(VestingParams)43_storage)"
      }
    ],
    "types": {
      "t_address": {
        "encoding": "inplace",
        "label": "address",
        "numberOfBytes": "20"
      },
      "t_contract(ITITNERC20Metadata)20": {
        "encoding": "inplace",
        "label": "contract ITITNERC20Metadata",
        "numberOfBytes": "20"
      },
      "t_mapping(t_address,t_struct(VestingParams)43_storage)": {
        "encoding": "mapping",
        "key": "t_address",
        "label": "mapping(address => struct TitnVestingWithCancel.VestingParams)",
        "numberOfBytes": "32",
        "value": "t_struct(VestingParams)43_storage"
      },
      "t_struct(VestingParams)43_storage": {
        "encoding": "inplace",
        "label": "struct TitnVestingWithCancel.VestingParams",
        "members": [
          {
            "astId": 38,
            "contract": "contracts/TitnVestingWithCancel.sol:TitnVestingWithCancel",
            "label": "vestingAmount",
            "offset": 0,
            "slot": "0",
            "type": "t_uint96"
          },
          {
            "astId": 40,
            "contract": "contracts/TitnVestingWithCancel.sol:TitnVestingWithCancel",
            "label": "vestingDuration",
            "offset": 12,
            "slot": "0",
            "type": "t_uint64"
          },
          {
            "astId": 42,
            "contract": "contracts/TitnVestingWithCancel.sol:TitnVestingWithCancel",
            "label": "vestingClaimed",
            "offset": 20,
            "slot": "0",
            "type": "t_uint96"
          }
        ],
        "numberOfBytes": "32"
      },
      "t_uint256": {
        "encoding": "inplace",
        "label": "uint256",
        "numberOfBytes": "32"
      },
      "t_uint64": {
        "encoding": "inplace",
        "label": "uint64",
        "numberOfBytes": "8"
      },
      "t_uint96": {
        "encoding": "inplace",
        "label": "uint96",
        "numberOfBytes": "12"
      }
    }
  }
}