{
  "address": "0xf4CC97fCe1815D1e86931fEa4F16d3F3d714EFb9",
  "abi": [
    {
      "inputs": [
        {
          "internalType": "address",
          "name": "titnToken",
          "type": "address"
        }
      ],
      "stateMutability": "nonpayable",
      "type": "constructor"
    },
    {
      "anonymous": false,
      "inputs": [
        {
          "indexed": true,
          "internalType": "address",
          "name": "account",
          "type": "address"
        },
        {
          "indexed": false,
          "internalType": "uint256",
          "name": "amount",
          "type": "uint256"
        }
      ],
      "name": "Allocated",
      "type": "event"
    },
    {
      "anonymous": false,
      "inputs": [
        {
          "indexed": true,
          "internalType": "address",
          "name": "account",
          "type": "address"
        },
        {
          "indexed": false,
          "internalType": "uint256",
          "name": "amount",
          "type": "uint256"
        }
      ],
      "name": "Cancelled",
      "type": "event"
    },
    {
      "anonymous": false,
      "inputs": [
        {
          "indexed": true,
          "internalType": "address",
          "name": "account",
          "type": "address"
        },
        {
          "indexed": false,
          "internalType": "uint256",
          "name": "amount",
          "type": "uint256"
        }
      ],
      "name": "Claimed",
      "type": "event"
    },
    {
      "anonymous": false,
      "inputs": [
        {
          "indexed": true,
          "internalType": "address",
          "name": "to",
          "type": "address"
        },
        {
          "indexed": false,
          "internalType": "uint256",
          "name": "amount",
          "type": "uint256"
        }
      ],
      "name": "ExcessWithdrawn",
      "type": "event"
    },
    {
      "anonymous": false,
      "inputs": [
        {
          "indexed": true,
          "internalType": "address",
          "name": "previousOwner",
          "type": "address"
        },
        {
          "indexed": true,
          "internalType": "address",
          "name": "newOwner",
          "type": "address"
        }
      ],
      "name": "OwnerTransferred",
      "type": "event"
    },
    {
      "inputs": [
        {
          "internalType": "address[]",
          "name": "accounts",
          "type": "address[]"
        },
        {
          "internalType": "uint256[]",
          "name": "amounts",
          "type": "uint256[]"
        }
      ],
      "name": "addAllocations",
      "outputs": [],
      "stateMutability": "nonpayable",
      "type": "function"
    },
    {
      "inputs": [
        {
          "internalType": "address",
          "name": "account",
          "type": "address"
        }
      ],
      "name": "allocationOf",
      "outputs": [
        {
          "internalType": "uint256",
          "name": "amount",
          "type": "uint256"
        },
        {
          "internalType": "bool",
          "name": "claimed",
          "type": "bool"
        }
      ],
      "stateMutability": "view",
      "type": "function"
    },
    {
      "inputs": [
        {
          "internalType": "address",
          "name": "",
          "type": "address"
        }
      ],
      "name": "allocations",
      "outputs": [
        {
          "internalType": "uint256",
          "name": "amount",
          "type": "uint256"
        },
        {
          "internalType": "bool",
          "name": "claimed",
          "type": "bool"
        }
      ],
      "stateMutability": "view",
      "type": "function"
    },
    {
      "inputs": [
        {
          "internalType": "address",
          "name": "account",
          "type": "address"
        }
      ],
      "name": "cancelAllocation",
      "outputs": [],
      "stateMutability": "nonpayable",
      "type": "function"
    },
    {
      "inputs": [],
      "name": "claim",
      "outputs": [],
      "stateMutability": "nonpayable",
      "type": "function"
    },
    {
      "inputs": [],
      "name": "owner",
      "outputs": [
        {
          "internalType": "address",
          "name": "",
          "type": "address"
        }
      ],
      "stateMutability": "view",
      "type": "function"
    },
    {
      "inputs": [],
      "name": "titn",
      "outputs": [
        {
          "internalType": "contract IERC20",
          "name": "",
          "type": "address"
        }
      ],
      "stateMutability": "view",
      "type": "function"
    },
    {
      "inputs": [],
      "name": "totalAllocated",
      "outputs": [
        {
          "internalType": "uint256",
          "name": "",
          "type": "uint256"
        }
      ],
      "stateMutability": "view",
      "type": "function"
    },
    {
      "inputs": [
        {
          "internalType": "address",
          "name": "newOwner",
          "type": "address"
        }
      ],
      "name": "transferOwner",
      "outputs": [],
      "stateMutability": "nonpayable",
      "type": "function"
    },
    {
      "inputs": [
        {
          "internalType": "address",
          "name": "to",
          "type": "address"
        },
        {
          "internalType": "uint256",
          "name": "amount",
          "type": "uint256"
        }
      ],
      "name": "withdrawExcess",
      "outputs": [],
      "stateMutability": "nonpayable",
      "type": "function"
    }
  ],
  "transactionHash": "0xdc5f45a2bc54affac1d63bbce465053e6875bfe2feb029565044f73f3f220fc4",
  "args": [
    "0xe62bfbE57763ec24c0F130426F34DbCe11Fc5B06"
  ],
  "numDeployments": 1,
  "solcInputHash": "bdfe8c56971eab5956c00da8d631d98c",
  "bytecode": "0x60a060405234801561001057600080fd5b5060405161107838038061107883398101604081905261002f916100db565b6001600160a01b0381166100895760405162461bcd60e51b815260206004820152601660248201527f4469737472696275746f723a207a65726f207469746e00000000000000000000604482015260640160405180910390fd5b6001600160a01b038116608052600080546001600160a01b0319163390811782556040519091907f8934ce4adea8d9ce0d714d2c22b86790e41b7731c84b926fbbdc1d40ff6533c9908290a35061010b565b6000602082840312156100ed57600080fd5b81516001600160a01b038116811461010457600080fd5b9392505050565b608051610f306101486000396000818160a801528181610322015281816105aa0152818161073c015281816109a90152610c450152610f306000f3fe608060405234801561001057600080fd5b506004361061009e5760003560e01c80636e90013d116100665780636e90013d1461015a5780637a1d32611461016d5780638da5cb5b14610180578063a4f82f2714610193578063d6a606e8146101de57600080fd5b80633ccf7e3e146100a357806345f7f249146100e75780634e71d92d146100fe5780634fb2e45d1461010857806352a9039c1461011b575b600080fd5b6100ca7f000000000000000000000000000000000000000000000000000000000000000081565b6040516001600160a01b0390911681526020015b60405180910390f35b6100f060015481565b6040519081526020016100de565b6101066101f1565b005b610106610116366004610d2c565b6103e8565b610145610129366004610d2c565b6002602052600090815260409020805460019091015460ff1682565b604080519283529015156020830152016100de565b610106610168366004610d4e565b61051b565b61010661017b366004610d2c565b6107fb565b6000546100ca906001600160a01b031681565b6101456101a1366004610d2c565b6001600160a01b03166000908152600260209081526040918290208251808401909352805480845260019091015460ff1615159290910182905291565b6101066101ec366004610dc4565b6109da565b33600090815260026020526040902080546102535760405162461bcd60e51b815260206004820152601a60248201527f4469737472696275746f723a206e6f20616c6c6f636174696f6e00000000000060448201526064015b60405180910390fd5b600181015460ff16156102a85760405162461bcd60e51b815260206004820152601c60248201527f4469737472696275746f723a20616c726561647920636c61696d656400000000604482015260640161024a565b80546001808301805460ff19168217905580548291906000906102cc908490610e46565b909155505060405181815233907fd8138f8a3f377c5259ca548e70e4c2de94f129f5a11036a15b69513cba2b426a9060200160405180910390a260405163a9059cbb60e01b8152336004820152602481018290527f00000000000000000000000000000000000000000000000000000000000000006001600160a01b03169063a9059cbb906044015b6020604051808303816000875af1158015610374573d6000803e3d6000fd5b505050506040513d601f19601f820116820180604052508101906103989190610e5f565b6103e45760405162461bcd60e51b815260206004820152601c60248201527f4469737472696275746f723a207472616e73666572206661696c656400000000604482015260640161024a565b5050565b6000546001600160a01b031633146104125760405162461bcd60e51b815260040161024a90610e81565b6001600160a01b0381166104685760405162461bcd60e51b815260206004820152601760248201527f4469737472696275746f723a207a65726f206f776e6572000000000000000000604482015260640161024a565b306001600160a01b038216036104c05760405162461bcd60e51b815260206004820152601a60248201527f4469737472696275746f723a207468697320636f6e7472616374000000000000604482015260640161024a565b600080546040516001600160a01b03808516939216917f8934ce4adea8d9ce0d714d2c22b86790e41b7731c84b926fbbdc1d40ff6533c991a3600080546001600160a01b0319166001600160a01b0392909216919091179055565b6000546001600160a01b031633146105455760405162461bcd60e51b815260040161024a90610e81565b6001600160a01b0382166105925760405162461bcd60e51b81526020600482015260146024820152734469737472696275746f723a207a65726f20746f60601b604482015260640161024a565b6040516370a0823160e01b81523060048201526000907f00000000000000000000000000000000000000000000000000000000000000006001600160a01b0316906370a0823190602401602060405180830381865afa1580156105f9573d6000803e3d6000fd5b505050506040513d601f19601f8201168201806040525081019061061d9190610eb8565b90506001548110156106715760405162461bcd60e51b815260206004820152601d60248201527f4469737472696275746f723a20696e76617269616e742062726f6b656e000000604482015260640161024a565b6000600154826106819190610e46565b9050808311156106d35760405162461bcd60e51b815260206004820152601b60248201527f4469737472696275746f723a2065786365656473206578636573730000000000604482015260640161024a565b836001600160a01b03167f9bdedcc968f2c0682145c20289dfbb3081a39684571116ab45eabfef512e94738460405161070e91815260200190565b60405180910390a260405163a9059cbb60e01b81526001600160a01b038581166004830152602482018590527f0000000000000000000000000000000000000000000000000000000000000000169063a9059cbb906044016020604051808303816000875af1158015610785573d6000803e3d6000fd5b505050506040513d601f19601f820116820180604052508101906107a99190610e5f565b6107f55760405162461bcd60e51b815260206004820152601c60248201527f4469737472696275746f723a207472616e73666572206661696c656400000000604482015260640161024a565b50505050565b6000546001600160a01b031633146108255760405162461bcd60e51b815260040161024a90610e81565b6001600160a01b0381166000908152600260209081526040918290208251808401909352805480845260019091015460ff161515918301919091526108ac5760405162461bcd60e51b815260206004820152601a60248201527f4469737472696275746f723a206e6f20616c6c6f636174696f6e000000000000604482015260640161024a565b8060200151156108fe5760405162461bcd60e51b815260206004820152601c60248201527f4469737472696275746f723a20616c726561647920636c61696d656400000000604482015260640161024a565b6001600160a01b03821660009081526002602052604081208181556001908101805460ff1916905582518154909290610938908490610e46565b909155505080516040519081526001600160a01b038316907f36ea5cd5608625e789af0282eecdb4eae1cb7c1cf6d0ec3f9a84f35be850260b9060200160405180910390a2600054815160405163a9059cbb60e01b81526001600160a01b03928316600482015260248101919091527f00000000000000000000000000000000000000000000000000000000000000009091169063a9059cbb90604401610355565b6000546001600160a01b03163314610a045760405162461bcd60e51b815260040161024a90610e81565b828114610a535760405162461bcd60e51b815260206004820152601c60248201527f4469737472696275746f723a206c656e677468206d69736d6174636800000000604482015260640161024a565b6000805b84811015610c12576000868683818110610a7357610a73610ed1565b9050602002016020810190610a889190610d2c565b90506000858584818110610a9e57610a9e610ed1565b60200291909101359150506001600160a01b038216610aff5760405162461bcd60e51b815260206004820152601960248201527f4469737472696275746f723a207a65726f206163636f756e7400000000000000604482015260640161024a565b60008111610b4f5760405162461bcd60e51b815260206004820152601860248201527f4469737472696275746f723a207a65726f20616d6f756e740000000000000000604482015260640161024a565b6001600160a01b03821660009081526002602052604090205415610b74575050610c0a565b604080518082018252828152600060208083018281526001600160a01b038716835260029091529290209051815590516001909101805460ff1916911515919091179055610bc28185610ee7565b9350816001600160a01b03167f472f36e28bb47edb7c69c9e2ac00a77c66b505df54e9c818ac57110b0629e8c382604051610bff91815260200190565b60405180910390a250505b600101610a57565b508015610d09578060016000828254610c2b9190610ee7565b90915550506040516370a0823160e01b81523060048201527f00000000000000000000000000000000000000000000000000000000000000006001600160a01b0316906370a0823190602401602060405180830381865afa158015610c94573d6000803e3d6000fd5b505050506040513d601f19601f82011682018060405250810190610cb89190610eb8565b6001541115610d095760405162461bcd60e51b815260206004820152601e60248201527f4469737472696275746f723a20696e73756666696369656e74205449544e0000604482015260640161024a565b5050505050565b80356001600160a01b0381168114610d2757600080fd5b919050565b600060208284031215610d3e57600080fd5b610d4782610d10565b9392505050565b60008060408385031215610d6157600080fd5b610d6a83610d10565b946020939093013593505050565b60008083601f840112610d8a57600080fd5b50813567ffffffffffffffff811115610da257600080fd5b6020830191508360208260051b8501011115610dbd57600080fd5b9250929050565b60008060008060408587031215610dda57600080fd5b843567ffffffffffffffff80821115610df257600080fd5b610dfe88838901610d78565b90965094506020870135915080821115610e1757600080fd5b50610e2487828801610d78565b95989497509550505050565b634e487b7160e01b600052601160045260246000fd5b81810381811115610e5957610e59610e30565b92915050565b600060208284031215610e7157600080fd5b81518015158114610d4757600080fd5b6020808252601a908201527f4469737472696275746f723a206e6f7420746865206f776e6572000000000000604082015260600190565b600060208284031215610eca57600080fd5b5051919050565b634e487b7160e01b600052603260045260246000fd5b80820180821115610e5957610e59610e3056fea26469706673582212205afe726078f8aa866c03c218b14382902d1834e06366a3cc468558326076abc964736f6c63430008160033",
  "devdoc": {
    "details": "Invariant: totalAllocated == sum of unclaimed allocations,         and totalAllocated <= TITN.balanceOf(this) at all times.",
    "kind": "dev",
    "methods": {
      "addAllocations(address[],uint256[])": {
        "details": "Reverts on zero address or zero amount entries to catch         caller-side mistakes early. Cancelled addresses can be         re-added (cancel deletes the mapping entry)."
      }
    },
    "title": "TitnDistributor",
    "version": 1
  },
  "userdoc": {
    "kind": "user",
    "methods": {
      "addAllocations(address[],uint256[])": {
        "notice": "Add allocations for a list of addresses. Addresses that         already have an allocation (claimed or unclaimed) are         silently skipped. Reverts if the contract does not hold         enough TITN to cover totalAllocated after the additions."
      },
      "allocationOf(address)": {
        "notice": "View helper for an account's allocation."
      },
      "cancelAllocation(address)": {
        "notice": "Cancel an unclaimed allocation and return its TITN to the         owner. The address is removed from the mapping so it can         be re-added later if desired."
      },
      "claim()": {
        "notice": "Claim the caller's full allocation. One-shot per address."
      },
      "totalAllocated()": {
        "notice": "Sum of currently-allocated, unclaimed TITN. Reserved for         recipients; only the surplus above this can be withdrawn         by the owner via withdrawExcess()."
      },
      "transferOwner(address)": {
        "notice": "Transfer ownership to a new address."
      },
      "withdrawExcess(address,uint256)": {
        "notice": "Withdraw any TITN held by the contract above what is         reserved for unclaimed allocations. Useful for recovering         excess funds without disturbing the allocation accounting."
      }
    },
    "notice": "Owner-managed TITN allocation contract. Owner funds the contract         with TITN and assigns per-address allocations. Recipients pull         their allocation via claim(). Owner may cancel unclaimed         allocations to recover the funds.",
    "version": 1
  },
  "storageLayout": {
    "storage": [
      {
        "astId": 8,
        "contract": "contracts/TitnDistributor.sol:TitnDistributor",
        "label": "owner",
        "offset": 0,
        "slot": "0",
        "type": "t_address"
      },
      {
        "astId": 11,
        "contract": "contracts/TitnDistributor.sol:TitnDistributor",
        "label": "totalAllocated",
        "offset": 0,
        "slot": "1",
        "type": "t_uint256"
      },
      {
        "astId": 21,
        "contract": "contracts/TitnDistributor.sol:TitnDistributor",
        "label": "allocations",
        "offset": 0,
        "slot": "2",
        "type": "t_mapping(t_address,t_struct(Allocation)16_storage)"
      }
    ],
    "types": {
      "t_address": {
        "encoding": "inplace",
        "label": "address",
        "numberOfBytes": "20"
      },
      "t_bool": {
        "encoding": "inplace",
        "label": "bool",
        "numberOfBytes": "1"
      },
      "t_mapping(t_address,t_struct(Allocation)16_storage)": {
        "encoding": "mapping",
        "key": "t_address",
        "label": "mapping(address => struct TitnDistributor.Allocation)",
        "numberOfBytes": "32",
        "value": "t_struct(Allocation)16_storage"
      },
      "t_struct(Allocation)16_storage": {
        "encoding": "inplace",
        "label": "struct TitnDistributor.Allocation",
        "members": [
          {
            "astId": 13,
            "contract": "contracts/TitnDistributor.sol:TitnDistributor",
            "label": "amount",
            "offset": 0,
            "slot": "0",
            "type": "t_uint256"
          },
          {
            "astId": 15,
            "contract": "contracts/TitnDistributor.sol:TitnDistributor",
            "label": "claimed",
            "offset": 0,
            "slot": "1",
            "type": "t_bool"
          }
        ],
        "numberOfBytes": "64"
      },
      "t_uint256": {
        "encoding": "inplace",
        "label": "uint256",
        "numberOfBytes": "32"
      }
    }
  }
}