{
  "address": "0xbb3D9642767Dce1cBE2508C94bf7Dd2a02F7675e",
  "abi": [
    {
      "inputs": [
        {
          "internalType": "address",
          "name": "_tgt",
          "type": "address"
        },
        {
          "internalType": "address",
          "name": "_titn",
          "type": "address"
        },
        {
          "internalType": "address",
          "name": "initialOwner",
          "type": "address"
        }
      ],
      "stateMutability": "nonpayable",
      "type": "constructor"
    },
    {
      "inputs": [],
      "name": "InvalidAmountReceived",
      "type": "error"
    },
    {
      "inputs": [],
      "name": "InvalidTokenReceived",
      "type": "error"
    },
    {
      "inputs": [],
      "name": "MaxLimitExceeded",
      "type": "error"
    },
    {
      "inputs": [],
      "name": "MergeEnded",
      "type": "error"
    },
    {
      "inputs": [],
      "name": "MergeLocked",
      "type": "error"
    },
    {
      "inputs": [
        {
          "internalType": "address",
          "name": "owner",
          "type": "address"
        }
      ],
      "name": "OwnableInvalidOwner",
      "type": "error"
    },
    {
      "inputs": [
        {
          "internalType": "address",
          "name": "account",
          "type": "address"
        }
      ],
      "name": "OwnableUnauthorizedAccount",
      "type": "error"
    },
    {
      "inputs": [],
      "name": "ReentrancyGuardReentrantCall",
      "type": "error"
    },
    {
      "inputs": [
        {
          "internalType": "address",
          "name": "token",
          "type": "address"
        }
      ],
      "name": "SafeERC20FailedOperation",
      "type": "error"
    },
    {
      "inputs": [],
      "name": "TGTExceeded",
      "type": "error"
    },
    {
      "inputs": [],
      "name": "TooEarlyToClaimRemainingTitn",
      "type": "error"
    },
    {
      "inputs": [],
      "name": "TooLateToClaimRemainingTitn",
      "type": "error"
    },
    {
      "inputs": [],
      "name": "ZeroAmount",
      "type": "error"
    },
    {
      "anonymous": false,
      "inputs": [
        {
          "indexed": true,
          "internalType": "address",
          "name": "user",
          "type": "address"
        },
        {
          "indexed": false,
          "internalType": "uint256",
          "name": "amount",
          "type": "uint256"
        }
      ],
      "name": "ClaimTitn",
      "type": "event"
    },
    {
      "anonymous": false,
      "inputs": [
        {
          "indexed": true,
          "internalType": "address",
          "name": "user",
          "type": "address"
        },
        {
          "indexed": false,
          "internalType": "uint256",
          "name": "titnOut",
          "type": "uint256"
        }
      ],
      "name": "ClaimableTitnUpdated",
      "type": "event"
    },
    {
      "anonymous": false,
      "inputs": [
        {
          "indexed": true,
          "internalType": "address",
          "name": "token",
          "type": "address"
        },
        {
          "indexed": false,
          "internalType": "uint256",
          "name": "amount",
          "type": "uint256"
        }
      ],
      "name": "Deposit",
      "type": "event"
    },
    {
      "anonymous": false,
      "inputs": [
        {
          "indexed": false,
          "internalType": "uint256",
          "name": "timestamp",
          "type": "uint256"
        }
      ],
      "name": "LaunchTimeSet",
      "type": "event"
    },
    {
      "anonymous": false,
      "inputs": [
        {
          "indexed": false,
          "internalType": "enum IMerge.LockedStatus",
          "name": "newStatus",
          "type": "uint8"
        }
      ],
      "name": "LockedStatusUpdated",
      "type": "event"
    },
    {
      "anonymous": false,
      "inputs": [
        {
          "indexed": true,
          "internalType": "address",
          "name": "previousOwner",
          "type": "address"
        },
        {
          "indexed": true,
          "internalType": "address",
          "name": "newOwner",
          "type": "address"
        }
      ],
      "name": "OwnershipTransferred",
      "type": "event"
    },
    {
      "anonymous": false,
      "inputs": [
        {
          "indexed": true,
          "internalType": "address",
          "name": "token",
          "type": "address"
        },
        {
          "indexed": false,
          "internalType": "uint256",
          "name": "amount",
          "type": "uint256"
        },
        {
          "indexed": true,
          "internalType": "address",
          "name": "to",
          "type": "address"
        }
      ],
      "name": "Withdraw",
      "type": "event"
    },
    {
      "anonymous": false,
      "inputs": [
        {
          "indexed": true,
          "internalType": "address",
          "name": "user",
          "type": "address"
        },
        {
          "indexed": false,
          "internalType": "uint256",
          "name": "amount",
          "type": "uint256"
        }
      ],
      "name": "WithdrawRemainingTitn",
      "type": "event"
    },
    {
      "inputs": [],
      "name": "TGT_TO_EXCHANGE",
      "outputs": [
        {
          "internalType": "uint256",
          "name": "",
          "type": "uint256"
        }
      ],
      "stateMutability": "view",
      "type": "function"
    },
    {
      "inputs": [],
      "name": "TITN_ARB",
      "outputs": [
        {
          "internalType": "uint256",
          "name": "",
          "type": "uint256"
        }
      ],
      "stateMutability": "view",
      "type": "function"
    },
    {
      "inputs": [
        {
          "internalType": "uint256",
          "name": "amount",
          "type": "uint256"
        }
      ],
      "name": "claimTitn",
      "outputs": [],
      "stateMutability": "nonpayable",
      "type": "function"
    },
    {
      "inputs": [
        {
          "internalType": "address",
          "name": "",
          "type": "address"
        }
      ],
      "name": "claimableTitnPerUser",
      "outputs": [
        {
          "internalType": "uint256",
          "name": "",
          "type": "uint256"
        }
      ],
      "stateMutability": "view",
      "type": "function"
    },
    {
      "inputs": [
        {
          "internalType": "address",
          "name": "",
          "type": "address"
        }
      ],
      "name": "claimedTitnPerUser",
      "outputs": [
        {
          "internalType": "uint256",
          "name": "",
          "type": "uint256"
        }
      ],
      "stateMutability": "view",
      "type": "function"
    },
    {
      "inputs": [
        {
          "internalType": "contract IERC20",
          "name": "token",
          "type": "address"
        },
        {
          "internalType": "uint256",
          "name": "amount",
          "type": "uint256"
        }
      ],
      "name": "deposit",
      "outputs": [],
      "stateMutability": "nonpayable",
      "type": "function"
    },
    {
      "inputs": [
        {
          "internalType": "address",
          "name": "user",
          "type": "address"
        }
      ],
      "name": "getClaimableTitnPerUser",
      "outputs": [
        {
          "internalType": "uint256",
          "name": "",
          "type": "uint256"
        }
      ],
      "stateMutability": "view",
      "type": "function"
    },
    {
      "inputs": [
        {
          "internalType": "address",
          "name": "user",
          "type": "address"
        }
      ],
      "name": "gettotalClaimedTitnPerUser",
      "outputs": [
        {
          "internalType": "uint256",
          "name": "",
          "type": "uint256"
        }
      ],
      "stateMutability": "view",
      "type": "function"
    },
    {
      "inputs": [],
      "name": "initialTotalClaimable",
      "outputs": [
        {
          "internalType": "uint256",
          "name": "",
          "type": "uint256"
        }
      ],
      "stateMutability": "view",
      "type": "function"
    },
    {
      "inputs": [],
      "name": "launchTime",
      "outputs": [
        {
          "internalType": "uint256",
          "name": "",
          "type": "uint256"
        }
      ],
      "stateMutability": "view",
      "type": "function"
    },
    {
      "inputs": [],
      "name": "lockedStatus",
      "outputs": [
        {
          "internalType": "enum IMerge.LockedStatus",
          "name": "",
          "type": "uint8"
        }
      ],
      "stateMutability": "view",
      "type": "function"
    },
    {
      "inputs": [
        {
          "internalType": "address",
          "name": "from",
          "type": "address"
        },
        {
          "internalType": "uint256",
          "name": "amount",
          "type": "uint256"
        },
        {
          "internalType": "bytes",
          "name": "extraData",
          "type": "bytes"
        }
      ],
      "name": "onTokenTransfer",
      "outputs": [],
      "stateMutability": "nonpayable",
      "type": "function"
    },
    {
      "inputs": [],
      "name": "owner",
      "outputs": [
        {
          "internalType": "address",
          "name": "",
          "type": "address"
        }
      ],
      "stateMutability": "view",
      "type": "function"
    },
    {
      "inputs": [
        {
          "internalType": "uint256",
          "name": "tgtAmount",
          "type": "uint256"
        }
      ],
      "name": "quoteTitn",
      "outputs": [
        {
          "internalType": "uint256",
          "name": "titnAmount",
          "type": "uint256"
        }
      ],
      "stateMutability": "view",
      "type": "function"
    },
    {
      "inputs": [],
      "name": "remainingTitnAfter1Year",
      "outputs": [
        {
          "internalType": "uint256",
          "name": "",
          "type": "uint256"
        }
      ],
      "stateMutability": "view",
      "type": "function"
    },
    {
      "inputs": [],
      "name": "renounceOwnership",
      "outputs": [],
      "stateMutability": "nonpayable",
      "type": "function"
    },
    {
      "inputs": [],
      "name": "setLaunchTime",
      "outputs": [],
      "stateMutability": "nonpayable",
      "type": "function"
    },
    {
      "inputs": [
        {
          "internalType": "enum IMerge.LockedStatus",
          "name": "newStatus",
          "type": "uint8"
        }
      ],
      "name": "setLockedStatus",
      "outputs": [],
      "stateMutability": "nonpayable",
      "type": "function"
    },
    {
      "inputs": [],
      "name": "tgt",
      "outputs": [
        {
          "internalType": "contract IERC20",
          "name": "",
          "type": "address"
        }
      ],
      "stateMutability": "view",
      "type": "function"
    },
    {
      "inputs": [],
      "name": "tgtBalance",
      "outputs": [
        {
          "internalType": "uint256",
          "name": "",
          "type": "uint256"
        }
      ],
      "stateMutability": "view",
      "type": "function"
    },
    {
      "inputs": [],
      "name": "titn",
      "outputs": [
        {
          "internalType": "contract IERC20",
          "name": "",
          "type": "address"
        }
      ],
      "stateMutability": "view",
      "type": "function"
    },
    {
      "inputs": [],
      "name": "titnBalance",
      "outputs": [
        {
          "internalType": "uint256",
          "name": "",
          "type": "uint256"
        }
      ],
      "stateMutability": "view",
      "type": "function"
    },
    {
      "inputs": [],
      "name": "totalTgtDeposited",
      "outputs": [
        {
          "internalType": "uint256",
          "name": "",
          "type": "uint256"
        }
      ],
      "stateMutability": "view",
      "type": "function"
    },
    {
      "inputs": [],
      "name": "totalTitnClaimable",
      "outputs": [
        {
          "internalType": "uint256",
          "name": "",
          "type": "uint256"
        }
      ],
      "stateMutability": "view",
      "type": "function"
    },
    {
      "inputs": [],
      "name": "totalTitnClaimed",
      "outputs": [
        {
          "internalType": "uint256",
          "name": "",
          "type": "uint256"
        }
      ],
      "stateMutability": "view",
      "type": "function"
    },
    {
      "inputs": [
        {
          "internalType": "address",
          "name": "newOwner",
          "type": "address"
        }
      ],
      "name": "transferOwnership",
      "outputs": [],
      "stateMutability": "nonpayable",
      "type": "function"
    },
    {
      "inputs": [
        {
          "internalType": "contract IERC20",
          "name": "token",
          "type": "address"
        },
        {
          "internalType": "uint256",
          "name": "amount",
          "type": "uint256"
        }
      ],
      "name": "withdraw",
      "outputs": [],
      "stateMutability": "nonpayable",
      "type": "function"
    },
    {
      "inputs": [],
      "name": "withdrawRemainingTitn",
      "outputs": [],
      "stateMutability": "nonpayable",
      "type": "function"
    }
  ],
  "transactionHash": "0x086ffc0b47b45d490442a4d0618833477093cef3dd431bbc159e0b9d769d18f9",
  "args": [
    "0x429fed88f10285e61b12bdf00848315fbdfcc341",
    "0xF6C0D842C9e5DE83972B5133FF66a05578697067",
    "0xCE23F3637575bdb1330f1A1Cf312A45964a8497c"
  ],
  "numDeployments": 1,
  "solcInputHash": "cd2101b330754f14fa5c0f4f8a455814",
  "bytecode": "0x60c06040523480156200001157600080fd5b50604051620014e4380380620014e48339810160408190526200003491620000fa565b806001600160a01b0381166200006457604051631e4fbdf760e01b81526000600482015260240160405180910390fd5b6200006f816200008d565b5050600180556001600160a01b039182166080521660a05262000144565b600080546001600160a01b038381166001600160a01b0319831681178455604051919092169283917f8be0079c531659141344cd1fd0a4f28419497f9722a3daafe3b4186f6b6457e09190a35050565b80516001600160a01b0381168114620000f557600080fd5b919050565b6000806000606084860312156200011057600080fd5b6200011b84620000dd565b92506200012b60208501620000dd565b91506200013b60408501620000dd565b90509250925092565b60805160a051611342620001a2600039600081816101fd015281816104a80152818161063a0152818161084f01528181610a5801528181610c960152610dfb0152600081816102e5015281816107cc0152610b6601526113426000f3fe608060405234801561001057600080fd5b50600436106101c45760003560e01c806372d2c97e116100f9578063b5e8296d11610097578063f2fde38b11610071578063f2fde38b146103c7578063f3a75285146103da578063f3fef3a3146103ed578063fa472d041461040057600080fd5b8063b5e8296d1461039a578063b943d640146103ad578063e9acd4ed146103bf57600080fd5b80638da5cb5b116100d35780638da5cb5b1461034e5780639e3e47e81461035f5780639f142baa1461037f578063a4c0ed361461038757600080fd5b806372d2c97e14610329578063790ca4131461033257806379a4ce6a1461033b57600080fd5b806347a751b411610166578063593594491161014057806359359449146102b757806367abd24c146102e0578063715018a61461030757806372a1789a1461030f57600080fd5b806347a751b41461027357806347b959d31461029c57806347e7ef24146102a457600080fd5b80633ccf7e3e116101a25780633ccf7e3e146101f85780633e9ff9c814610237578063457d2a3314610240578063471610ce1461025357600080fd5b806301554bb8146101c95780630afdb3f8146101e55780630e200933146101ee575b600080fd5b6101d260095481565b6040519081526020015b60405180910390f35b6101d260085481565b6101f6610409565b005b61021f7f000000000000000000000000000000000000000000000000000000000000000081565b6040516001600160a01b0390911681526020016101dc565b6101d260055481565b6101d261024e366004611112565b6106a6565b6101d2610261366004611140565b60036020526000908152604090205481565b6101d2610281366004611140565b6001600160a01b031660009081526004602052604090205490565b6101d26107b4565b6101f66102b2366004611164565b610845565b6101d26102c5366004611140565b6001600160a01b031660009081526003602052604090205490565b61021f7f000000000000000000000000000000000000000000000000000000000000000081565b6101f6610926565b600a5461031c9060ff1681565b6040516101dc91906111a6565b6101d260075481565b6101d260025481565b6101f6610349366004611112565b610938565b6000546001600160a01b031661021f565b6101d261036d366004611140565b60046020526000908152604090205481565b6101f6610ac0565b6101f66103953660046111ce565b610b53565b6101d26b01def004e4b97d732300000081565b6101d26a8fae67de37a5a28a80000081565b6101d2610de3565b6101f66103d5366004611140565b610e32565b6101f66103e8366004611257565b610e6d565b6101f66103fb366004611164565b610ed3565b6101d260065481565b610411610f5d565b60006002541161045e5760405162461bcd60e51b815260206004820152601360248201527213185d5b98da081d1a5b59481b9bdd081cd95d606a1b60448201526064015b60405180910390fd5b6301da9c0060025442610471919061128e565b101561049057604051635fbfb5fb60e01b815260040160405180910390fd5b6040516370a0823160e01b81523060048201526000907f00000000000000000000000000000000000000000000000000000000000000006001600160a01b0316906370a0823190602401602060405180830381865afa1580156104f7573d6000803e3d6000fd5b505050506040513d601f19601f8201168201806040525081019061051b91906112a7565b90506007546000036105335760078190556006546008555b33600090815260046020526040902054806105845760405162461bcd60e51b815260206004820152601160248201527027379031b630b4b6b0b13632902a24aa2760791b6044820152606401610455565b6000600854600754610596919061128e565b9050600060085482846105a991906112c0565b6105b391906112d7565b905060006105c182856112f9565b3360009081526004602052604081208190556005805492935083929091906105ea9084906112f9565b9091555050336000908152600360205260408120805483929061060e9084906112f9565b925050819055508360066000828254610627919061128e565b9091555061066190506001600160a01b037f0000000000000000000000000000000000000000000000000000000000000000163383610f87565b60405181815233907f4bf97e95ca3d6c3c2ccfe8fcf9eec40b737eaf378c8ff73677a672f24bcdabdf9060200160405180910390a250505050506106a460018055565b565b600080600254116106ef5760405162461bcd60e51b815260206004820152601360248201527213185d5b98da081d1a5b59481b9bdd081cd95d606a1b6044820152606401610455565b6000600254426106ff919061128e565b90506276a70081101561073f576b01def004e4b97d732300000061072e6a8fae67de37a5a28a800000856112c0565b61073891906112d7565b91506107ae565b6301da9c008110156107a957600061075b826301da9c0061128e565b90506107776b01def004e4b97d7323000000630163f5006112c0565b8161078d6a8fae67de37a5a28a800000876112c0565b61079791906112c0565b6107a191906112d7565b9250506107ae565b600091505b50919050565b6040516370a0823160e01b81523060048201526000907f00000000000000000000000000000000000000000000000000000000000000006001600160a01b0316906370a08231906024015b602060405180830381865afa15801561081c573d6000803e3d6000fd5b505050506040513d601f19601f8201168201806040525081019061084091906112a7565b905090565b61084d610feb565b7f00000000000000000000000000000000000000000000000000000000000000006001600160a01b0316826001600160a01b03161461089f57604051636d5f86d560e01b815260040160405180910390fd5b6a8fae67de37a5a28a80000081146108ca5760405163c20c399360e01b815260040160405180910390fd5b6108df6001600160a01b038316333084611018565b816001600160a01b03167fe1fffcc4923d04b559f4d29a8bfc6cda04eb5b0d3c460751c2402c5c5cc9109c8260405161091a91815260200190565b60405180910390a25050565b61092e610feb565b6106a46000611051565b610940610f5d565b3360009081526004602052604090205481111561099f5760405162461bcd60e51b815260206004820152601960248201527f4e6f7420656e6f75676820636c61696d61626c65207469746e000000000000006044820152606401610455565b6301da9c00600254426109b2919061128e565b106109d057604051635570737f60e01b815260040160405180910390fd5b33600090815260036020526040812080548392906109ef9084906112f9565b90915550503360009081526004602052604081208054839290610a1390849061128e565b925050819055508060056000828254610a2c91906112f9565b925050819055508060066000828254610a45919061128e565b90915550610a7f90506001600160a01b037f0000000000000000000000000000000000000000000000000000000000000000163383610f87565b60405181815233907f770fd956986104c67f2bbd1afec8ea0748d0e7b221abf52783e1bf7a56fa54e39060200160405180910390a2610abd60018055565b50565b610ac8610feb565b60025415610b185760405162461bcd60e51b815260206004820152601760248201527f4c61756e63682074696d6520616c7265616479207365740000000000000000006044820152606401610455565b4260028190556040519081527f904fc432821d8cadec83d758c8133c3003214b3735ce8c68f0d2428e2e2f2f2b9060200160405180910390a1565b610b5b610f5d565b336001600160a01b037f00000000000000000000000000000000000000000000000000000000000000001614610ba457604051636d5f86d560e01b815260040160405180910390fd5b6000600a5460ff166002811115610bbd57610bbd611190565b1480610bc95750600254155b15610be75760405163dd4598d160e01b815260040160405180910390fd5b82600003610c0857604051631f2a200560e01b815260040160405180910390fd5b6301da9c0060025442610c1b919061128e565b10610c395760405163dd0c752360e01b815260040160405180910390fd5b6b01def004e4b97d732300000083600954610c5491906112f9565b1115610c73576040516367afe6f760e01b815260040160405180910390fd5b6000610c7e846106a6565b6040516370a0823160e01b81523060048201529091507f00000000000000000000000000000000000000000000000000000000000000006001600160a01b0316906370a0823190602401602060405180830381865afa158015610ce5573d6000803e3d6000fd5b505050506040513d601f19601f82011682018060405250810190610d0991906112a7565b81600654610d1791906112f9565b1115610d36576040516340ec7a6360e01b815260040160405180910390fd5b6001600160a01b03851660009081526004602052604081208054839290610d5e9084906112f9565b925050819055508060066000828254610d7791906112f9565b925050819055508360096000828254610d9091906112f9565b90915550506040518181526001600160a01b038616907fc40c9a2d24837f1575d46e0e5163180910813a5e2b15e10ff415ee252c521c129060200160405180910390a250610ddd60018055565b50505050565b6040516370a0823160e01b81523060048201526000907f00000000000000000000000000000000000000000000000000000000000000006001600160a01b0316906370a08231906024016107ff565b610e3a610feb565b6001600160a01b038116610e6457604051631e4fbdf760e01b815260006004820152602401610455565b610abd81611051565b610e75610feb565b600a805482919060ff19166001836002811115610e9457610e94611190565b02179055507f5b540ba7ba0d49a9324e5449fbaaae3f7bb79fda716fab1b4c17f2a43c836fcb81604051610ec891906111a6565b60405180910390a150565b610edb610feb565b610f01610ef06000546001600160a01b031690565b6001600160a01b0384169083610f87565b6000546001600160a01b03166001600160a01b0316826001600160a01b03167f56c54ba9bd38d8fd62012e42c7ee564519b09763c426d331b3661b537ead19b283604051610f5191815260200190565b60405180910390a35050565b600260015403610f8057604051633ee5aeb560e01b815260040160405180910390fd5b6002600155565b6040516001600160a01b03838116602483015260448201839052610fe691859182169063a9059cbb906064015b604051602081830303815290604052915060e01b6020820180516001600160e01b0383818316178352505050506110a1565b505050565b6000546001600160a01b031633146106a45760405163118cdaa760e01b8152336004820152602401610455565b6040516001600160a01b038481166024830152838116604483015260648201839052610ddd9186918216906323b872dd90608401610fb4565b600080546001600160a01b038381166001600160a01b0319831681178455604051919092169283917f8be0079c531659141344cd1fd0a4f28419497f9722a3daafe3b4186f6b6457e09190a35050565b600080602060008451602086016000885af1806110c4576040513d6000823e3d81fd5b50506000513d915081156110dc5780600114156110e9565b6001600160a01b0384163b155b15610ddd57604051635274afe760e01b81526001600160a01b0385166004820152602401610455565b60006020828403121561112457600080fd5b5035919050565b6001600160a01b0381168114610abd57600080fd5b60006020828403121561115257600080fd5b813561115d8161112b565b9392505050565b6000806040838503121561117757600080fd5b82356111828161112b565b946020939093013593505050565b634e487b7160e01b600052602160045260246000fd5b60208101600383106111c857634e487b7160e01b600052602160045260246000fd5b91905290565b600080600080606085870312156111e457600080fd5b84356111ef8161112b565b935060208501359250604085013567ffffffffffffffff8082111561121357600080fd5b818701915087601f83011261122757600080fd5b81358181111561123657600080fd5b88602082850101111561124857600080fd5b95989497505060200194505050565b60006020828403121561126957600080fd5b81356003811061115d57600080fd5b634e487b7160e01b600052601160045260246000fd5b818103818111156112a1576112a1611278565b92915050565b6000602082840312156112b957600080fd5b5051919050565b80820281158282048414176112a1576112a1611278565b6000826112f457634e487b7160e01b600052601260045260246000fd5b500490565b808201808211156112a1576112a161127856fea2646970667358221220616c1ec60c7e6ed3b96b22260b287ec5c25831eeb6d3d3953e8f43ea3a6ca4b664736f6c63430008160033",
  "devdoc": {
    "errors": {
      "OwnableInvalidOwner(address)": [
        {
          "details": "The owner is not a valid owner account. (eg. `address(0)`)"
        }
      ],
      "OwnableUnauthorizedAccount(address)": [
        {
          "details": "The caller account is not authorized to perform an operation."
        }
      ],
      "ReentrancyGuardReentrantCall()": [
        {
          "details": "Unauthorized reentrant call."
        }
      ],
      "SafeERC20FailedOperation(address)": [
        {
          "details": "An operation with an ERC-20 token failed."
        }
      ]
    },
    "kind": "dev",
    "methods": {
      "owner()": {
        "details": "Returns the address of the current owner."
      },
      "renounceOwnership()": {
        "details": "Leaves the contract without owner. It will not be possible to call `onlyOwner` functions. Can only be called by the current owner. NOTE: Renouncing ownership will leave the contract without an owner, thereby disabling any functionality that is only available to the owner."
      },
      "transferOwnership(address)": {
        "details": "Transfers ownership of the contract to a new account (`newOwner`). Can only be called by the current owner."
      }
    },
    "version": 1
  },
  "userdoc": {
    "kind": "user",
    "methods": {
      "onTokenTransfer(address,uint256,bytes)": {
        "notice": "tgt token transferAndCall ERC677-like"
      },
      "withdraw(address,uint256)": {
        "notice": "Withdraw any locked contracts in Merge contract"
      }
    },
    "version": 1
  },
  "storageLayout": {
    "storage": [
      {
        "astId": 3841,
        "contract": "contracts/MergeTgt.sol:MergeTgt",
        "label": "_owner",
        "offset": 0,
        "slot": "0",
        "type": "t_address"
      },
      {
        "astId": 5276,
        "contract": "contracts/MergeTgt.sol:MergeTgt",
        "label": "_status",
        "offset": 0,
        "slot": "1",
        "type": "t_uint256"
      },
      {
        "astId": 6022,
        "contract": "contracts/MergeTgt.sol:MergeTgt",
        "label": "launchTime",
        "offset": 0,
        "slot": "2",
        "type": "t_uint256"
      },
      {
        "astId": 6026,
        "contract": "contracts/MergeTgt.sol:MergeTgt",
        "label": "claimedTitnPerUser",
        "offset": 0,
        "slot": "3",
        "type": "t_mapping(t_address,t_uint256)"
      },
      {
        "astId": 6030,
        "contract": "contracts/MergeTgt.sol:MergeTgt",
        "label": "claimableTitnPerUser",
        "offset": 0,
        "slot": "4",
        "type": "t_mapping(t_address,t_uint256)"
      },
      {
        "astId": 6032,
        "contract": "contracts/MergeTgt.sol:MergeTgt",
        "label": "totalTitnClaimed",
        "offset": 0,
        "slot": "5",
        "type": "t_uint256"
      },
      {
        "astId": 6034,
        "contract": "contracts/MergeTgt.sol:MergeTgt",
        "label": "totalTitnClaimable",
        "offset": 0,
        "slot": "6",
        "type": "t_uint256"
      },
      {
        "astId": 6036,
        "contract": "contracts/MergeTgt.sol:MergeTgt",
        "label": "remainingTitnAfter1Year",
        "offset": 0,
        "slot": "7",
        "type": "t_uint256"
      },
      {
        "astId": 6038,
        "contract": "contracts/MergeTgt.sol:MergeTgt",
        "label": "initialTotalClaimable",
        "offset": 0,
        "slot": "8",
        "type": "t_uint256"
      },
      {
        "astId": 6040,
        "contract": "contracts/MergeTgt.sol:MergeTgt",
        "label": "totalTgtDeposited",
        "offset": 0,
        "slot": "9",
        "type": "t_uint256"
      },
      {
        "astId": 6043,
        "contract": "contracts/MergeTgt.sol:MergeTgt",
        "label": "lockedStatus",
        "offset": 0,
        "slot": "10",
        "type": "t_enum(LockedStatus)7005"
      }
    ],
    "types": {
      "t_address": {
        "encoding": "inplace",
        "label": "address",
        "numberOfBytes": "20"
      },
      "t_enum(LockedStatus)7005": {
        "encoding": "inplace",
        "label": "enum IMerge.LockedStatus",
        "numberOfBytes": "1"
      },
      "t_mapping(t_address,t_uint256)": {
        "encoding": "mapping",
        "key": "t_address",
        "label": "mapping(address => uint256)",
        "numberOfBytes": "32",
        "value": "t_uint256"
      },
      "t_uint256": {
        "encoding": "inplace",
        "label": "uint256",
        "numberOfBytes": "32"
      }
    }
  }
}