{
  "address": "0xA0886FA2C2bE9e9f05D000c800758bc1b875C661",
  "abi": [
    {
      "inputs": [
        {
          "internalType": "address",
          "name": "_usdc",
          "type": "address"
        },
        {
          "internalType": "address",
          "name": "_circleTokenMessenger",
          "type": "address"
        },
        {
          "internalType": "uint32",
          "name": "_destinationDomain",
          "type": "uint32"
        },
        {
          "internalType": "address",
          "name": "_destinationCaller",
          "type": "address"
        }
      ],
      "stateMutability": "nonpayable",
      "type": "constructor"
    },
    {
      "anonymous": false,
      "inputs": [
        {
          "indexed": true,
          "internalType": "address",
          "name": "recipient",
          "type": "address"
        },
        {
          "indexed": true,
          "internalType": "address",
          "name": "from",
          "type": "address"
        },
        {
          "indexed": false,
          "internalType": "uint256",
          "name": "amount",
          "type": "uint256"
        },
        {
          "indexed": false,
          "internalType": "uint64",
          "name": "nonce",
          "type": "uint64"
        }
      ],
      "name": "BridgeInitiated",
      "type": "event"
    },
    {
      "anonymous": false,
      "inputs": [
        {
          "indexed": true,
          "internalType": "address",
          "name": "newDestinationCaller",
          "type": "address"
        }
      ],
      "name": "DestinationCallerUpdated",
      "type": "event"
    },
    {
      "anonymous": false,
      "inputs": [
        {
          "indexed": true,
          "internalType": "address",
          "name": "owner",
          "type": "address"
        },
        {
          "indexed": false,
          "internalType": "uint256",
          "name": "usdcAmount",
          "type": "uint256"
        },
        {
          "indexed": false,
          "internalType": "uint256",
          "name": "ethAmount",
          "type": "uint256"
        }
      ],
      "name": "EmergencyWithdrawal",
      "type": "event"
    },
    {
      "anonymous": false,
      "inputs": [
        {
          "indexed": true,
          "internalType": "address",
          "name": "newOwner",
          "type": "address"
        }
      ],
      "name": "OwnerUpdated",
      "type": "event"
    },
    {
      "inputs": [],
      "name": "bridgeUSDC",
      "outputs": [],
      "stateMutability": "nonpayable",
      "type": "function"
    },
    {
      "inputs": [],
      "name": "circleTokenMessenger",
      "outputs": [
        {
          "internalType": "contract ITokenMessenger",
          "name": "",
          "type": "address"
        }
      ],
      "stateMutability": "view",
      "type": "function"
    },
    {
      "inputs": [],
      "name": "destinationCaller",
      "outputs": [
        {
          "internalType": "address",
          "name": "",
          "type": "address"
        }
      ],
      "stateMutability": "view",
      "type": "function"
    },
    {
      "inputs": [],
      "name": "destinationDomain",
      "outputs": [
        {
          "internalType": "uint32",
          "name": "",
          "type": "uint32"
        }
      ],
      "stateMutability": "view",
      "type": "function"
    },
    {
      "inputs": [],
      "name": "emergencyWithdraw",
      "outputs": [],
      "stateMutability": "nonpayable",
      "type": "function"
    },
    {
      "inputs": [],
      "name": "owner",
      "outputs": [
        {
          "internalType": "address",
          "name": "",
          "type": "address"
        }
      ],
      "stateMutability": "view",
      "type": "function"
    },
    {
      "inputs": [
        {
          "internalType": "address",
          "name": "_newDestinationCaller",
          "type": "address"
        }
      ],
      "name": "setDestinationCaller",
      "outputs": [],
      "stateMutability": "nonpayable",
      "type": "function"
    },
    {
      "inputs": [
        {
          "internalType": "address",
          "name": "_newOwner",
          "type": "address"
        }
      ],
      "name": "setOwner",
      "outputs": [],
      "stateMutability": "nonpayable",
      "type": "function"
    },
    {
      "inputs": [],
      "name": "usdc",
      "outputs": [
        {
          "internalType": "address",
          "name": "",
          "type": "address"
        }
      ],
      "stateMutability": "view",
      "type": "function"
    },
    {
      "stateMutability": "payable",
      "type": "receive"
    }
  ],
  "transactionHash": "0xbde3ff3b3cccd3a5d039ba08fecbceac80fc4e584353501bf9ebb1d943675593",
  "args": [
    "0xaf88d065e77c8cc2239327c5edb3a432268e5831",
    "0x19330d10D9Cc8751218eaf51E8885D058642E08A",
    6,
    "0x143A044e497624F46a0f1E35847eCf2400A0d3Df"
  ],
  "numDeployments": 2,
  "solcInputHash": "0ba54ce712c8c23ce02c173857c37c02",
  "bytecode": "0x60c060405234801561001057600080fd5b50604051610b69380380610b6983398101604081905261002f91610096565b6001600160a01b0393841660805263ffffffff90911660a052600180549184166001600160a01b031992831617905560028054821633179055600080549290931691161790556100f5565b80516001600160a01b038116811461009157600080fd5b919050565b600080600080608085870312156100ac57600080fd5b6100b58561007a565b93506100c36020860161007a565b9250604085015163ffffffff811681146100dc57600080fd5b91506100ea6060860161007a565b905092959194509250565b60805160a051610a266101436000396000818160ca01526105a7015260008181610118015281816103c50152818161049e015281816105de015281816106ef01526107940152610a266000f3fe60806040526004361061008a5760003560e01c80638c1577c9116100595780638c1577c9146101725780638da5cb5b14610192578063b04b4f98146101b2578063d69b22f2146101d2578063db2e21bc146101e757600080fd5b806313af4035146100965780632858c55a146100b85780633e413bee146101065780637e458fc31461015257600080fd5b3661009157005b600080fd5b3480156100a257600080fd5b506100b66100b1366004610933565b6101fc565b005b3480156100c457600080fd5b506100ec7f000000000000000000000000000000000000000000000000000000000000000081565b60405163ffffffff90911681526020015b60405180910390f35b34801561011257600080fd5b5061013a7f000000000000000000000000000000000000000000000000000000000000000081565b6040516001600160a01b0390911681526020016100fd565b34801561015e57600080fd5b506100b661016d366004610933565b6102c7565b34801561017e57600080fd5b5060005461013a906001600160a01b031681565b34801561019e57600080fd5b5060025461013a906001600160a01b031681565b3480156101be57600080fd5b5060015461013a906001600160a01b031681565b3480156101de57600080fd5b506100b6610383565b3480156101f357600080fd5b506100b66106ad565b6002546001600160a01b0316331461022f5760405162461bcd60e51b815260040161022690610963565b60405180910390fd5b6001600160a01b03811661027d5760405162461bcd60e51b8152602060048201526015602482015274496e76616c6964206f776e6572206164647265737360581b6044820152606401610226565b600280546001600160a01b0319166001600160a01b0383169081179091556040517f4ffd725fc4a22075e9ec71c59edf9c38cdeb588a91b24fc5b61388c5be41282b90600090a250565b6002546001600160a01b031633146102f15760405162461bcd60e51b815260040161022690610963565b6001600160a01b0381166103395760405162461bcd60e51b815260206004820152600f60248201526e496e76616c6964206164647265737360881b6044820152606401610226565b600180546001600160a01b0319166001600160a01b0383169081179091556040517f269d2e028b06484521d939625b92a8c5e2f1539ab996fba487c0c1cafc919eb790600090a250565b6002546001600160a01b031633146103ad5760405162461bcd60e51b815260040161022690610963565b6040516370a0823160e01b81523060048201526000907f00000000000000000000000000000000000000000000000000000000000000006001600160a01b0316906370a0823190602401602060405180830381865afa158015610414573d6000803e3d6000fd5b505050506040513d601f19601f82011682018060405250810190610438919061098b565b90506000811161047e5760405162461bcd60e51b81526020600482015260116024820152704e6f205553444320746f2062726964676560781b6044820152606401610226565b6000546040516370a0823160e01b81523060048201526001600160a01b037f000000000000000000000000000000000000000000000000000000000000000081169263095ea7b39291169083906370a0823190602401602060405180830381865afa1580156104f1573d6000803e3d6000fd5b505050506040513d601f19601f82011682018060405250810190610515919061098b565b6040516001600160e01b031960e085901b1681526001600160a01b03909216600483015260248201526044016020604051808303816000875af1158015610560573d6000803e3d6000fd5b505050506040513d601f19601f8201168201806040525081019061058491906109a4565b50600080546001546040516337e9a82760e11b81526004810185905263ffffffff7f00000000000000000000000000000000000000000000000000000000000000001660248201526001600160a01b0391821660448201527f000000000000000000000000000000000000000000000000000000000000000082166064820152911690636fd3504e906084016020604051808303816000875af115801561062f573d6000803e3d6000fd5b505050506040513d601f19601f8201168201806040525081019061065391906109c6565b6001546040805185815267ffffffffffffffff8416602082015292935033926001600160a01b03909216917f538d3d4ca0cd13fa6b4969d1bf2968399ed63fb56c58af7e788adb8a35988f47910160405180910390a35050565b6002546001600160a01b031633146106d75760405162461bcd60e51b815260040161022690610963565b6040516370a0823160e01b81523060048201526000907f00000000000000000000000000000000000000000000000000000000000000006001600160a01b0316906370a0823190602401602060405180830381865afa15801561073e573d6000803e3d6000fd5b505050506040513d601f19601f82011682018060405250810190610762919061098b565b90504781156108465760025460405163a9059cbb60e01b81526001600160a01b039182166004820152602481018490527f00000000000000000000000000000000000000000000000000000000000000009091169063a9059cbb906044016020604051808303816000875af11580156107df573d6000803e3d6000fd5b505050506040513d601f19601f8201168201806040525081019061080391906109a4565b6108465760405162461bcd60e51b81526020600482015260146024820152731554d110c81d1c985b9cd9995c8819985a5b195960621b6044820152606401610226565b80156108e7576002546040516000916001600160a01b03169083908381818185875af1925050503d8060008114610899576040519150601f19603f3d011682016040523d82523d6000602084013e61089e565b606091505b50509050806108e55760405162461bcd60e51b8152602060048201526013602482015272115512081d1c985b9cd9995c8819985a5b1959606a1b6044820152606401610226565b505b60025460408051848152602081018490526001600160a01b03909216917f56da9a5ae0bcf6e7c3fdd78a10550e7d0458de1c39bfb7f6e96a3e92dd344a68910160405180910390a25050565b60006020828403121561094557600080fd5b81356001600160a01b038116811461095c57600080fd5b9392505050565b6020808252600e908201526d139bdd08185d5d1a1bdc9a5e995960921b604082015260600190565b60006020828403121561099d57600080fd5b5051919050565b6000602082840312156109b657600080fd5b8151801515811461095c57600080fd5b6000602082840312156109d857600080fd5b815167ffffffffffffffff8116811461095c57600080fdfea2646970667358221220562d3071fd844b8e3b445521a487b38af9eee5ffe205c427b09d9a9d4f6448d164736f6c63430008160033",
  "devdoc": {
    "kind": "dev",
    "methods": {},
    "version": 1
  },
  "userdoc": {
    "kind": "user",
    "methods": {},
    "version": 1
  },
  "storageLayout": {
    "storage": [
      {
        "astId": 44,
        "contract": "contracts/USDCBridge.sol:USDCBridge",
        "label": "circleTokenMessenger",
        "offset": 0,
        "slot": "0",
        "type": "t_contract(ITokenMessenger)440"
      },
      {
        "astId": 48,
        "contract": "contracts/USDCBridge.sol:USDCBridge",
        "label": "destinationCaller",
        "offset": 0,
        "slot": "1",
        "type": "t_address"
      },
      {
        "astId": 50,
        "contract": "contracts/USDCBridge.sol:USDCBridge",
        "label": "owner",
        "offset": 0,
        "slot": "2",
        "type": "t_address"
      }
    ],
    "types": {
      "t_address": {
        "encoding": "inplace",
        "label": "address",
        "numberOfBytes": "20"
      },
      "t_contract(ITokenMessenger)440": {
        "encoding": "inplace",
        "label": "contract ITokenMessenger",
        "numberOfBytes": "20"
      }
    }
  }
}